:020000040000fa
:08000000020c040000000000e6
:020000040000fa
:10000800885b0000885b0000885b0000885b00005c
:10001800885b0000885b0000885b0000885b00004c
:100028004a5b000026530000885b00001052000065
:100038001c5a0000d6530000885b000038520000ac
:100048000e530000885b0000885b00000a57000020
:1000580002570000145a0000fa570000885b00009d
:10006800885b0000885b0000885b0000885b0000fc
:10007800885b0000885b000086540000885b0000f5
:10008800885b0000885b0000885b0000885b0000dc
:10009800885b0000885b00001c590000885b00003a
:1000a800885b0000885b0000885b0000885b0000bc
:1000b800885b0000885b0000885b0000885b0000ac
:1000c800885b0000885b0000885b0000885b00009c
:1000d800885b0000885b0000885b0000885b00008c
:1000e800885b0000885b0000885b0000885b00007c
:1000f800885b0000885b0000885b0000885b00006c
:10010800885b0000885b0000885b0000885b00005b
:10011800885b0000885b0000885b0000885b00004b
:10012800885b0000885b0000885b0000885b00003b
:10013800885b0000885b0000885b0000885b00002b
:10014800885b0000885b0000885b0000885b00001b
:10015800885b0000885b0000885b0000885b00000b
:10016800885b0000885b0000885b0000885b0000fb
:10017800885b0000885b0000885b0000885b0000eb
:10018800885b0000885b0000885b0000885b0000db
:10019800885b0000885b0000885b0000885b0000cb
:1001a800885b0000885b0000885b0000885b0000bb
:1001b800885b0000885b0000885b0000885b0000ab
:1001c800885b0000885b0000885b0000885b00009b
:1001d800885b0000885b0000885b0000885b00008b
:1001e800885b0000885b0000885b0000885b00007b
:0801f800885b0000885b000039
:020000040000fa
:10020800885b0000885b0000885b0000885b00005a
:10021800885b0000885b0000885b0000885b00004a
:100228004a5b000026530000885b00001052000063
:100238001c5a0000d6530000885b000038520000aa
:100248000e530000885b0000885b00000a5700001e
:1002580002570000145a0000fa570000885b00009b
:10026800885b0000885b0000885b0000885b0000fa
:10027800885b0000885b000086540000885b0000f3
:10028800885b0000885b0000885b0000885b0000da
:10029800885b0000885b00001c590000885b000038
:1002a800885b0000885b0000885b0000885b0000ba
:1002b800885b0000885b0000885b0000885b0000aa
:1002c800885b0000885b0000885b0000885b00009a
:1002d800885b0000885b0000885b0000885b00008a
:1002e800885b0000885b0000885b0000885b00007a
:1002f800885b0000885b0000885b0000885b00006a
:10030800885b0000885b0000885b0000885b000059
:10031800885b0000885b0000885b0000885b000049
:10032800885b0000885b0000885b0000885b000039
:10033800885b0000885b0000885b0000885b000029
:10034800885b0000885b0000885b0000885b000019
:10035800885b0000885b0000885b0000885b000009
:10036800885b0000885b0000885b0000885b0000f9
:10037800885b0000885b0000885b0000885b0000e9
:10038800885b0000885b0000885b0000885b0000d9
:10039800885b0000885b0000885b0000885b0000c9
:1003a800885b0000885b0000885b0000885b0000b9
:1003b800885b0000885b0000885b0000885b0000a9
:1003c800885b0000885b0000885b0000885b000099
:1003d800885b0000885b0000885b0000885b000089
:1003e800885b0000885b0000885b0000885b000079
:0803f800885b0000885b000037
:020000040000fa
:10180000050000006ffe20000e2c22000e01880053
:101810000000000000012000200288000c000700ea
:10182000a0ab2500010020001100070000002000ef
:101830000000e00002003200000002000000000092
:10184000f24a0200000000000040da000000fe0042
:101850004440a900605720000000e000030032006f
:1018600000002000a00188004440a80000000600fd
:1018700091018800800078000000eb00150037001f
:10188000e280400032a0b4009101ba00e280400042
:1018900032a0b4009102ba00e280400032a0b4004d
:1018a0000002eb00472bde00f507b200602ce100e0
:1018b00004003a000059eb008301e900fdff3e00ff
:1018c000040037006128e100010032000082eb00d3
:1018d000040007001101ba000200e000e8ff3a002e
:1018e000000006003159ba008301e9000c00320003
:1018f0002159ba008301e900080032000400e00029
:1019000003003a00e280400032a0b400f5ff370047
:1019100011d9ba008301e900faff3a008100e8001a
:10192000e180400032a0b4000000060006a2a90039
:101930000682a800000006000802d5006140600091
:1019400000000600040024000602ab00feff3a007f
:101950000642ab00fcff3a000662ab00faff3a0019
:101960000622ab00f8ff3a000682ab00f6ff3a0011
:101970004510800084826200f3ff3a0000000600f8
:101980000662a8000662ab00feff3a0008c2a9008a
:1019900000108000000006000080fb00101088008e
:1019a000441080000408b20000c0eb000a003a00b6
:1019b000040024004510800084826200fdff3a008c
:1019c000e0ff0700401080000400280004006000d1
:1019d00001003200e0cfb3000000060006a2a8001c
:1019e0000682a800000006000622a80000000600eb
:1019f0000602a800000006000642a800000006003b
:101a000031e2a90097c0a90097e0a90087c0a9000a
:101a100087e0a9000000060042118800001188003c
:101a20001111880000000600c21188008011880092
:101a30009111880000000600041180006602620017
:101a4000e60f520002003a0030118000000006004c
:101a500030118000f00fb2000000060084118000f9
:101a600066026200e60f520002003a00b0118000e8
:101a700000000600b0118000f00fb2000000060068
:101a80008411800066026200e60f52000c003a00ea
:101a9000030037003322ab00feff3a00a511880097
:101aa000b0027800e08f5200faff3a000000060012
:101ab0003322ab00feff3a008502fb00a51188002f
:101ac000b0427800e0cf5200f9ff3a000000060073
:101ad000839f68000100e00002003d0060001000ec
:101ae000e08018000300e00002003d0060011100ea
:101af000e0811900050007004f00e00002003b00f4
:101b000060001000e0801800000006006022b800ad
:101b1000060220000000d0008180d2000482d200a2
:101b20008582d2000000a0000202520083825a0087
:101b3000030031000202420083824a000000a1003b
:101b40000603e900f3ff3a0000000600889fbe008c
:101b50008a9fbe003004be002005be00040444007d
:101b600085844c0006054d0087854d000898be0011
:101b70000a90be000440e10005c8e10006d0e10083
:101b800007d8e10002003100680040001008e800ba
:101b90004f05be004f04be00000006001000fa0012
:101ba000889fbe008a9fbe000605be000404be00da
:101bb0003002be002003be00c4b79f00d5b79f000f
:101bc000e6b79f00f7b79f000802520089825a00cb
:101bd0000a035b008b835b0084bf9f0095bf9f005f
:101be000a6bf9f00b7bf9f000498be000698be0026
:101bf000110020004fb29700dfb297006fb397003b
:101c0000ffb397000820e10009a8e1000ab0e10055
:101c10000bb8e100010039008000eb0010881000d3
:101c20004f05be004f04be000080fa000000060011
:101c30001400fa00889fbe008a9fbe008c9fbe00e1
:101c40003f0007000605be000404be000006eb00ce
:101c5000ccb79f00bcb79f00acb79f009cb79f005c
:101c60008cb79f000d0420004fb39700bfb29700c0
:101c7000860343002fb29700e00f530004003d009d
:101c80003d0007000f004000b0ff070003003700d1
:101c9000390007000f004000c0ff0700cfb29700d7
:101ca00095bf9f00e08f5200090035002b00070010
:101cb00014002000050020006033b800000072000e
:101cc0008180720002017300838173001c00070091
:101cd0000c06e8008d0f5600e3ff3a001fba97008c
:101ce000e00f520005003d000802be000a03be00de
:101cf00000fe2f000f00400094ff07004faa97003e
:101d0000e00f520008003a000fb497009fb497000c
:101d10002fb59700bfb59700d8b79f00e9b79f00d0
:101d2000fab79f008bbf9f000c0007004f06be0054
:101d30004f05be004f04be000080fa000000060000
:101d4000010007000000060090b79f00a1b79f00a8
:101d5000b2b79f00c3b79f00000006000100070054
:101d6000000006001fb09700afb097003fb197008a
:101d7000cfb19700000006004f2bde0087037300f1
:101d8000a7b79f004f23de008582420085027300c3
:101d900095b79f00ffaa97004f2bde000402420078
:101da0000402730084b79f006faa97004f23de00e0
:101db0008582420085027300f5af9f00e9ff0700ae
:101dc0004f18de000402420000027200e4af9f00e0
:101dd000e4ff070000004000818048000201490044
:101de00083814900d8ff07000802be000a03be0035
:101df00000fe2f0000000600881f78001800200059
:101e0000881f78008aff07008f87e9004f04780059
:101e100000000600801feb0085ff07008f87e900a8
:101e200000000600889fbe008a9fbe00e00f5000a1
:101e3000e08f5800e00f5900e08f59000c003d0082
:101e40006044b8006055b8000000540081805c0018
:101e500002015d0083815d0018002000150007006d
:101e600008003d00180007000004eb0005003700e3
:101e70000004eb000f00070002003d001200070005
:101e800018002000dcff0700e00f540006003200bd
:101e90006022b8006033b8000000520081805a0010
:101ea00002015b0083815b004f05be004f04be0052
:101eb00000000600e00f5200e08f5a00e00f5b00c8
:101ec000e08f5b00000006006044b8006055b80079
:101ed0000402540085825c0006035d0087835d0078
:101ee00000000600889fbe008a9fbe008c1f7800fd
:101ef000e00f5000e08f5800e00f5900e08f5900cc
:101f00000d003d006044b8006055b800000054006a
:101f100081805c0002015d0083815d001c00200067
:101f20000820e10009a8e1000ab0e1000bb8e100d7
:101f30000d003d00080037000006eb00e00f5200e6
:101f4000e08f5a00e00f5b00e08f5b0006003d0071
:101f50006044b8006055b8000402540085825c00fb
:101f600006035d0087835d00aaff0700e00f5600af
:101f7000060032006022b8006033b8000000520052
:101f800081805a0002015b0083815b004f0678006c
:101f90004f05be004f04be00000006000800fa0016
:101fa000300798003e02900014027800040f780079
:101fb0000002eb00140798000002eb0024079800d1
:101fc0001e02780094427800d4c2b30084cf52003d
:101fd00003003a0014002000240798001e0fe800b8
:101fe0001e0278009442780094c3b30084cf52005c
:101ff00013003e001e02780094427800f4c2b30041
:1020000084cf5200100036001e0290006a22b900f0
:10201000840278001e027800144278000483fb00da
:10202000e41f2d00144278000402fb000402530058
:1020300004824200140798001e0fe800e8ff3700f2
:102040000000000001003700000000001e027800c0
:1020500014427800e04f5200010032001e0fe800e9
:102060003e0290009e027800050a78002e02900041
:10207000e00f520002003a001e02900002003700fa
:102080001e0290000402ea00040078000080fa00ba
:10209000000006000a00fa00300798004107980087
:1020a0000002eb00140798003e029000e00f52007f
:1020b0000c003a00e41f2d00144278008402fb005b
:1020c0004e029000050a78004e0290000482e8005b
:1020d000440798001e0290000402e80014079800cc
:1020e0003b00370004712200040f780035003700f0
:1020f000be0290001e027800809fbe001100090001
:102100008482d80000027800810278004f00be006f
:10211000240798002e02900004f0a7000402ea00b1
:102120000402ea004f22de00844278001e02900082
:1021300004f0a7000402ea000402ea004f22de00d5
:102140000442780004c27200e04f520014003200d2
:10215000ae0290001e02780004aab90004027800c2
:10216000be0290000482520034079800e51f2d0043
:102170002e02900004824200144278008402fb0088
:102180004e029000050a78004e0290000482e8009a
:10219000440798001e0290000402e800140798000b
:1021a0009e027800a4002000809fbe00110009005c
:1021b0008482d80000027800810278004f00be00bf
:1021c000040f78001e027800e00f5200c8ff3a00aa
:1021d0004e029000040078000080fa000000060023
:1021e0000e00fa0050079800610798000002eb000b
:1021f000240798005e029000e00f520006003d00a8
:1022000014002000240798005e0290000402ea00f7
:1022100014079800020037005e029000140798002f
:102220000002eb00340798002e029000e10f5200ec
:1022300006003a006e029000d5022000050a7800e0
:102240006e0290000482e800640798001e0290006d
:10225000e00f52000c003a00e41f2d0014427800f9
:102260008402fb006e029000050a78006e02900066
:102270000482e800640798003e0290000402e8002f
:10228000340798003b00370004712200040f7800e7
:10229000350037009e0290001e027800809fbe002d
:1022a000110009008482d8000002780081027800c1
:1022b0004f00be00440798004e02900004f0a700b3
:1022c0000402ea000402ea004f22de0084427800a1
:1022d0003e02900004f0a7000402ea000402ea00b3
:1022e0004f22de000442780004c27200e04f520028
:1022f00014003200ce0290001e02780004aab90039
:10230000040278009e029000048252001407980094
:10231000e51f2d004e029000048242001442780016
:102320008402fb006e029000050a78006e029000a5
:102330000482e800640798003e0290000402e8006e
:10234000340798009e027800a4002000809fbe0001
:10235000110009008482d800000278008102780010
:102360004f00be00040f78001e027800e00f5200fc
:10237000c8ff3a006e029000040078000080fa0066
:10238000000006000e00fa00500798006107980050
:102390000002eb00240798005e029000e00f52005c
:1023a00006003d0014002000240798005e02900003
:1023b0000402ea0014079800020037005e02900051
:1023c000140798000002eb00340798002e029000da
:1023d000e10f520007003a006e029000d502200083
:1023e000050a78006e0290000482e80064079800f5
:1023f000060037006e029000b5022000050a780042
:102400006e0290000482e8006407980004712200c4
:10241000040f78004a0037009e0290001e027800e8
:10242000809fbe00110009008482d800000278005d
:10243000810278004f00be00440798004e029000d1
:1024400004f0a7000402ea000402ea004f22de00c2
:10245000844278003e02900004f0a7000402ea00e3
:102460000402ea004f22de000442780004c2720037
:102470008482fb0014002000f67022009e03780086
:10248000868f5300010036000002eb0004827200c8
:10249000e00f520014003200ce0290001e027800bd
:1024a00004aab900040278009e029000048252003f
:1024b00014079800e51f2d004e0290000482420090
:1024c000144278008402fb006e029000050a780036
:1024d0006e0290000482e800640798003e029000bb
:1024e0000402e80034079800843e20009e02780031
:1024f000848f520009003a006e029000e50220002d
:10250000050a78006e0290000482e80064079800d3
:102510003e0290000402e800340798009e02780012
:10252000a4002000809fbe00110009008482d80012
:1025300000027800810278004f00be00040f78008e
:102540001e027800e00f5200b3ff3a006e029000c6
:10255000040078000080fa00000006000e00fa0077
:1025600050079800610798000002eb0024079800cc
:102570005e029000e00f520006003d0014002000b3
:10258000240798005e0290000402ea0014079800f5
:10259000020037005e029000140798000002eb0072
:1025a000340798002e029000e10f520007003a0015
:1025b0006e029000d5022000050a78006e0290009d
:1025c0000482e80064079800060037006e0290005d
:1025d000b5022000050a78006e0290000482e8002f
:1025e0006407980004712200040f78004900370046
:1025f0009e0290001e027800809fbe00110009001c
:102600008482d80000027800810278004f00be006a
:10261000440798004e02900004f0a7000402ea006c
:102620000402ea004f22de00844278003e0290005d
:1026300004f0a7000402ea000402ea004f22de00d0
:102640000442780004c272008482fb00140020005f
:10265000360620009e037800868f53000100360066
:102660000002eb0004827200e00f520014003200fe
:10267000ce0290001e02780004aab900040278007d
:102680009e0290000482520014079800e51f2d005e
:102690004e02900004824200144278008402fb0043
:1026a0006e029000050a78006e0290000482e80035
:1026b000640798003e0290000402e8003407980086
:1026c0001e027800ea0f520009003a006e029000e4
:1026d000e5022000050a78006e0290000482e800fe
:1026e000640798003e0290000402e8003407980056
:1026f0009e027800a4002000809fbe001100090007
:102700008482d80000027800810278004f00be0069
:10271000040f78001e027800e00f5200b4ff3a0068
:102720006e029000040078000080fa0000000600ad
:102730000400fa00004f7800110798009e427800cc
:102740000582fb004422de00044278000482fb0084
:102750006f026200e51f2d0065427a008402fb00d3
:102760001e029000050a78001e0290000482e80014
:10277000140798009e4278000582fb006f026200f9
:10278000e51f2d0065427a008402fb001e029000c6
:10279000050a78001e0290000482e80014079800e1
:1027a0001e029000040078000080fa00000006007d
:1027b0000800fa00300798003e02900014027800ea
:1027c000140798000042eb00044f78000042eb0031
:1027d000444798001e029000144278008482fb0057
:1027e00084202d00144278000402fb00848f5200e4
:1027f0000b0035001e0290009442780084202d00ca
:102800001442780004c252006a4f42001e4278000f
:10281000ef4f5200160036000042eb005600370022
:102820001e029000144278008482fb00e41f2d00f9
:10283000144278000402fb00848f52000a00350025
:102840001e02900094427800e41f2d00144278008c
:1028500004cf52001e427800e94f520004003600b7
:102860000042eb00440037000042eb00420037001a
:102870001e0290000402e800140798003e02900037
:102880009e029000050a78001e0290001442780013
:102890008482fb0084202d00144278000402fb0097
:1028a000848f5200120035001e029000944278007e
:1028b00084202d001442780004c252006a42420073
:1028c000444798004e429000ef4f520002003600fd
:1028d0001e427800280037001e4278004500200084
:1028e0008522dd004e42900004cf42001b003700dd
:1028f0001e029000144278008482fb00e41f2d0029
:10290000144278000402fb00848f5200110035004d
:102910001e02900094427800e41f2d0014427800bb
:1029200004c25200444798004e429000e94f5200c2
:10293000020036001e4278000f0037001e42780069
:10294000450020008522dd004e42900004cf420069
:10295000020037000042eb00070037001e02900023
:102960000402e800140798003e0290009e029000c6
:10297000050a78001e427800044078000080fa00c2
:10298000000006000800fa002007980031079800b0
:102990000002eb00040f78002e029000140798004c
:1029a0000c0037003e029000144278008402fb00c5
:1029b0001e029000050a78001e0290000482e800c2
:1029c000140798003e0290000402e80034079800c3
:1029d0001e0fe8003e02900014427800e04f5200c3
:1029e00004003200f40720009e027800848f520019
:1029f000ecff36001e029000040078000080fa0010
:102a0000000006000600fa00100798002107980051
:102a100014002000040f78000f0037001e02900001
:102a2000944278002e0290001442780084cf520025
:102a3000030032000002eb00040f78000e003700a4
:102a40001e0290000402e800140798002e02900075
:102a50000402e800240798001e0290001442780047
:102a6000e04f5200040032002e0290001442780021
:102a7000e04f5200e9ff3a001e0290001442780035
:102a8000e04f520006003a002e02900014427800f7
:102a9000e04f5200020032000002eb00040f780009
:102aa0001e027800040078000080fa000000060092
:102ab0000600fa002200f8002400f8002600f800c2
:102ac00010079800210798001e029000040242009f
:102ad000140798001e029000040f78001e02780070
:102ae000ae0290001301c0000400cc00040f780077
:102af0001e027800040078002600f9002400f90086
:102b00002200f9000080fa00000006000c00fa0024
:102b10002007980031079800420798005307980053
:102b20002e029000cfa2de00048fbe003e02900075
:102b3000cfa2de001e1f12001e971a004e02900048
:102b4000cfa2de001e03900004b3b9000603780094
:102b50009e03780005b8b90080037800070343009e
:102b60009e037800040278000722b80005034300a2
:102b700086027800048fbe00048fbe005e029000c3
:102b80000402d100050020001e0f42005e974a009b
:102b90005e029000050020000401be001e00be0081
:102ba000cbfb07000002be00048fbe001e027800af
:102bb000040078000080fa00000006000000fa001f
:102bc00007e2a900440620002410880007e2a800bc
:102bd00007a2a9000782a8000762a9000742a9006e
:102be0000722a9000702a90006e2a90006c2a9005f
:102bf00006a2a8000682a9000662a9000642a90052
:102c00000622a9000602a9004efb07000080fa0078
:102c1000000006000400fa00204798000002eb00c4
:102c2000040f780072fb07000000000034108000e1
:102c300061026200e00f5200fcff3a002e42900059
:102c40000482fb004622de0004427800e242620079
:102c500004cab30004c24200044078004efb0700df
:102c6000000000004410800061026200e00f52008a
:102c7000fcff3a000000000045108000040028001e
:102c800004826200e00f5200fbff3a002e429000e7
:102c90000482fb00040242000442780004407800f1
:102ca0003dfb07000000000044108000610262004c
:102cb000e00f5200fcff3a000000000045108000c9
:102cc0000400280004826200e00f5200fbff3a007b
:102cd00047fb070000000000341080006102620022
:102ce000e00f5200fcff3a002e4290000482fb00ed
:102cf0004622de0004427800e242620014cab300b9
:102d000004c242000440780023fb070000000000da
:102d10004410800061026200e00f5200fcff3a00a4
:102d200000000000451080000400280004826200ba
:102d3000e00f5200fbff3a0011fb07000042780051
:102d40000482fb004822dd00040f7800f7fa070038
:102d5000000000003410800070026200e00f52009a
:102d6000fcff3a0006fb0700004278000482fb00eb
:102d70001e0f420019fb0700000000003410800005
:102d800070026200e00f5200fcff3a001afb0700dd
:102d9000000000003410800064026200e00f520066
:102da000fcff3a00e7fa07001e02780004007800f2
:102db0000080fa00000006000400fa002047980096
:102dc0000002eb00040f7800defa0700100a200072
:102dd000010020004022070005fb07000000000062
:102de0003410800061026200e00f5200fcff3a00e4
:102df0008620a90020cdb300e7fa070000000000fc
:102e00004410800061026200e00f5200fcff3a00b3
:102e100000000000451080000400280004826200c9
:102e2000e00f5200fbff3a002e409000dafa070054
:102e3000000000004410800061026200e00f5200b8
:102e4000fcff3a000000000045108000040028004c
:102e500004826200e00f5200fbff3a00e4fa070030
:102e6000000000003410800061026200e00f520098
:102e7000fcff3a0030cdb300c7fa070000000000a5
:102e80004410800061026200e00f5200fcff3a0033
:102e90000000000045108000040028000482620049
:102ea000e00f5200fbff3a00b5fa0700004278003d
:102eb0000482fb004822dd00040f78009bfa070023
:102ec000000000003410800070026200e00f520029
:102ed000fcff3a00aafa0700004278000482fb00d7
:102ee0001e0f4200bdfa07000000000034108000f1
:102ef00070026200e00f5200fcff3a00befa0700c9
:102f0000000000003410800064026200e00f5200f4
:102f1000fcff3a00100a200001002000ee2107000b
:102f200088fa07001e027800040078000080fa008a
:102f3000000006000400fa00004f78001107980016
:102f4000abfa07000000000034108000610262004c
:102f5000e00f5200fcff3a009e4278000582fb0021
:102f60004622de0004427800e242620004cab30056
:102f700004c242000440780087fa07000000000005
:102f80004410800061026200e00f5200fcff3a0032
:102f90000000000045108000040028000482620048
:102fa000e00f5200fbff3a009e4278000582fb00d2
:102fb00004024200044278000440780076fa0700d8
:102fc000000000004410800061026200e00f520027
:102fd000fcff3a00000000004510800004002800bb
:102fe00004826200e00f5200fbff3a001e029000d4
:102ff0004822de00044278000440780066fa0700a8
:10300000000000004410800061026200e00f5200e6
:10301000fcff3a000000000045108000040028007a
:1030200004826200e00f5200fbff3a001e02900093
:10303000044278000440780057fa070000000000be
:103040004410800061026200e00f5200fcff3a0071
:103050000000000045108000040028000482620087
:10306000e00f5200fbff3a0063fa07000000000087
:103070003410800064026200e00f5200fcff3a004e
:1030800000c02e0041002000932107002dfa070008
:103090000080fa00000006000600fa0020479800b1
:1030a00031479800424798000002eb00040f780077
:1030b0004e429000e04f520002003a0014c0b300ac
:1030c000444798001ffa070049fa07000000000073
:1030d0003410800061026200e00f5200fcff3a00f1
:1030e0008620a9002e429000044078002afa0700aa
:1030f000000000004410800061026200e00f5200f6
:10310000fcff3a000000000034048000620262000c
:10311000e00f5200fcff32008620a90000000000f2
:10312000451080000400280004826200e00f520075
:10313000fbff3a003e4290000440780016fa070078
:10314000000000004410800061026200e00f5200a5
:10315000fcff3a00000000003404800062026200bc
:10316000e00f5200fcff32008620a90000000000a2
:10317000451080000400280004826200e00f520025
:10318000fbff3a0018fa070000000000341080002e
:1031900064026200e00f5200fcff3a00201420009d
:1031a000010020004c2107002e4290000442e8005c
:1031b000244798002e42900004407800f6f907005a
:1031c000000000004410800061026200e00f520025
:1031d000fcff3a000000000034048000620262003c
:1031e000e00f5200fcff32008620a9000000000022
:1031f000d1f9070000427800e04f5200fcff3a008e
:10320000dff90700004278000482fb00040f780019
:103210004e429000e24f52000b003a00c3f9070003
:10322000000000003410800070026200e00f5200c5
:10323000fcff3a00d2f90700004278000482fb004c
:103240004822dd001e0f7200e4f90700eaf90700ca
:10325000000000003410800064026200e00f5200a1
:10326000fcff3a00b7f907001e027800040078005e
:103270000080fa00000006000600fa0020479800cf
:1032800031479800424798000002eb00040f780095
:10329000acf90700d6f907000000000034108000e8
:1032a00061026200e00f5200fcff3a008620a90094
:1032b0002e42900004407800b7f90700000000009b
:1032c0004410800061026200e00f5200fcff3a00ef
:1032d000000000003404800062026200e00f52002f
:1032e000fcff32008620a900010037001e0fe80015
:1032f000451080000400280004826200e00f5200a4
:1033000004003200340620009e027800848f5200b0
:10331000f6ff34003e429000044078009ef907001a
:10332000000000004410800061026200e00f5200c3
:10333000fcff3a00000000003404800062026200da
:10334000e00f5200fcff32008620a9000100370088
:103350001e0fe8004510800004002800048262006f
:10336000e00f520004003200740c20009e0278002e
:10337000848f5200f6ff34004e42900004407800e3
:1033800085f907000000000044108000610262001f
:10339000e00f5200fcff3a000000000034048000ff
:1033a00062026200e00f5200fcff32008620a9009a
:1033b000010037001e0fe8004510800004002800bf
:1033c00004826200e00f520004003200b4122000b8
:1033d0009e027800848f5200f6ff340086f90700c1
:1033e000000000003410800064026200e00f520010
:1033f000fcff3a0053f907000080fa0000000600c5
:103400000a00fa0040479800514798006247980028
:103410004307980014c0b300044f78006e42900038
:10342000e04f5200260032009e4278004e4290004b
:10343000054178008440780020cdb30016ff0700d6
:1034400000027800144798006e4290000482fb004e
:1034500015002000042add008402e9005e4290008d
:103460000483fb006e4290000482fb0004025300c0
:103470000402e800042add00244798009e429000e0
:103480002e42900004c26200144798001e42900031
:103490008482fb005e4290000483fb006e42900039
:1034a0000482fb00040253000402e80004aade00c8
:1034b000144798004e0290009e429000054a780002
:1034c0001e427800044078000080fa0000000600e8
:1034d0000600fa002047980031479800220798001c
:1034e00014c0b300044f78009e4278002e42900032
:1034f000054178008440780020cdb300e6fe070047
:1035000000027800144798003e4290000482fb00bd
:1035100015002000042add00844278001e4290003d
:1035200004c26200ae029000844a78001e42780015
:10353000044078000080fa00000006000600fa004f
:103540002047980031479800424798005347980019
:103550004e429000e04f5200310032000042eb003a
:10356000044f78002e42900012c0b30084407800cf
:1035700020cdb300c8fe070000027800044f780099
:103580004e4290000482fb0015002000042add005a
:103590008402e9003e4290000483fb004e4290000a
:1035a0000482fb00040253000402e800042add0048
:1035b000144798005e4290008482fb003e429000d7
:1035c0000483fb004e4290000482fb00040253007f
:1035d0000402e800042add0054479800de4290000f
:1035e0001e42900004c26200544798001e429000a0
:1035f00084c2ea001e42780004c26200044f7800d0
:103600005e4290001e4f72009e4278002e42900053
:10361000054178008440780020cdb30016ff0700f4
:103620000080fa00000006000600fa00204798001b
:1036300031479800424798002e42900012c0b300d4
:103640008440780020cdb30093fe0700000278008c
:10365000044f78004e429000e04f520008003200c4
:103660003e4290000482fb0015002000042add0089
:10367000844278001e42780004c2720008003700bd
:103680003e4290000482fb0015002000042add0069
:103690000442780084c2ea001e42780004c262003c
:1036a000044f78009e4278002e4290000541780039
:1036b0008440780020cdb300effe07000080fa00c0
:1036c000000006000200fa000042eb00044f780000
:1036d00012c0b30051c7b30020cdb3006efe070087
:1036e00000027800044f780084c6b3009e42780040
:1036f00084cf520002003a0014c0b300010037002a
:103700000042eb00044078000080fa000000060050
:103710000200fa000042eb00044f780002c8b30038
:10372000b1c6b30020cdb300d3fe0700008028004f
:10373000d1012000e81f070012c0b300b1c6b300da
:1037400020cdb300ccfe070000c02900810120007d
:10375000e11f070012c0b300a1c1b30020cdb30028
:10376000c5fe070032c0b30091c1b30020cdb30045
:10377000c1fe070002c1b300b1c1b30020cdb30048
:10378000bdfe070082c1b300c1c1b30020cdb300ac
:10379000b9fe07000041eb0031c2b30020cdb300f9
:1037a000b5fe070012c0b30081c3b30020cdb30043
:1037b000b1fe07000080fa00000006000000fa00d9
:1037c000b0c3b3007cfd070000027800b47d880020
:1037d000d0c3b30078fd070000027800d47d8800d4
:1037e000f0c3b30074fd070000027800f47d880088
:1037f00030c4b30070fd070000027800c47d88006b
:1038000050c4b3006cfd070000027800e47d88001e
:1038100070c4b30068fd070000027800047e8800d1
:103820000080fa00000006000000fa00b47d80006d
:10383000040078000080fa00000006000000fa0092
:10384000d47d8000040078000080fa0000000600ab
:103850000000fa00f47d8000040078000080fa0087
:10386000000006000000fa00c47d8000040078001b
:103870000080fa00000006000000fa00e47d8000ed
:10388000040078000080fa00000006000000fa0042
:10389000047e8000040078000080fa00000006002a
:1038a0000400fa0024798000e10f520012003a006f
:1038b0000040eb00d7fc07000002780014408800ad
:1038c00015408000f4702200848f520003003600ff
:1038d00014002000144088000300370014408000ca
:1038e0000402e8001440880014408000840078003e
:1038f0000040eb008ffd070010c0b300c5fc0700bf
:10390000000278002440880024408000e30f520029
:1039100003003e0024408000e00f52000c003a00fb
:1039200024408000e30f52000300360034002000e2
:103930002440880002003700140020002440880042
:10394000244080008400780010c0b30079fd070097
:1039500020c0b300affc07000002780034408800ac
:1039600034408000ea0f520014003200ea0f520087
:1039700007003e00e20f520012003200e50f520035
:1039800012003200e10f520012003200080037002e
:1039900025032000850f520010003200450620004c
:1039a000850f52000f003200f40f52000f0032005a
:1039b00044012000344088000d0037000000000062
:1039c0000b00370000000000090037000000000075
:1039d000070037000000000005003700000000006d
:1039e0000300370000000000010037000000000065
:1039f00030c0b30087fc0700000278004440880014
:103a000044408000e60f52000200360064002000af
:103a10004440880044408000e00f520003003a0018
:103a200044062000d45b88000e003700444080002c
:103a3000e20f520003003e0024032000d45b880004
:103a40000800370044408000e30f520003003e00ae
:103a500044012000d45b880002003700a40020004d
:103a6000d45b880035408000d45b8000848f520096
:103a700002003600d45b800034408800344080006f
:103a80008400780020c0b3002afd07004440800075
:103a90008400780030c0b30026fd07000002eb0070
:103aa000040f7800ad0037001e0278006322b900d1
:103ab00004027800140798001e0290000442780067
:103ac000644242000440780052fc07008002780003
:103ad0001e03780064024300040342002480200097
:103ae00004024300050a78009e02780064824200c6
:103af00084024200248020000482420014027800e4
:103b0000e30f5200130036001e03780064024300e6
:103b10008402420024802000048242008002eb00e4
:103b2000050a78009e027800648242008402420006
:103b30002480200004824200940278001e0290003b
:103b40000442780064424200850078000440780016
:103b5000f8fc07001e029000044278006542420013
:103b6000044078002bfc0700800278001e037800d8
:103b70006702430004034200248020000402430043
:103b8000050a78009e0278006782420084024200a3
:103b9000248020000482420094027800843e2000a9
:103ba000848f520008003e001e0378006702430025
:103bb0008402420024802000048242001402780023
:103bc000e00f520023003a009e0278006782420014
:103bd0008402420024802000048242001402780003
:103be000e00f520008003a001e037800670243000d
:103bf000840242002480200004824200150020003c
:103c0000050a7800070037009e02780067824200ac
:103c1000840242002480200004824200853e20006d
:103c2000050a78001e037800670243008402420000
:103c30002480200004824200940278001e0290003a
:103c40000442780065424200850078000440780014
:103c5000b8fc07001e029000044278006642420051
:103c600004407800ebfb0700800278001e03780018
:103c70006a0243000403420024802000040243003f
:103c8000050a78009e0278006a824200840242009f
:103c9000248020000482420094027800843e2000a8
:103ca000848f520008003e001e0378006a02430021
:103cb0008402420024802000048242001402780022
:103cc000e00f520024003a009e0278006a8242000f
:103cd0008402420024802000048242009402780082
:103ce000843e2000848f5200080036001e037800b6
:103cf0006a024300840242002480200004824200c1
:103d0000853e2000050a7800070037009e027800f3
:103d10006a82420084024200248020000482420021
:103d200015002000050a78001e0378006a0243008f
:103d30008402420024802000048242009402780021
:103d40001e0290000442780066424200850078001e
:103d50000440780077fc07001e0fe8001e02780080
:103d6000e20f520050ff36000002eb00040f780013
:103d7000280037001e02780004427800704242009a
:103d800004407800a3fb0700800278001e0378003f
:103d90006d0243000403420024802000040243001b
:103da000050a78009e0278006d824200840242007b
:103db000248020000482420014027800e20f5200a6
:103dc000130036001e0378006d0243008402420097
:103dd00024802000048242008002eb00050a780063
:103de0009e0278006d8242008402420024802000fe
:103df00004824200940278001e0278000442780097
:103e000070424200850078000440780049fc0700b9
:103e10001e0fe8001e027800e90f5200d5ff3600a1
:103e2000f0c1b3007bfb07000002780084418800ea
:103e300085418000c4032000848f520006003600b4
:103e4000c4032000844188008441800084007800fd
:103e5000f0c1b30037fc07000080fa000000060044
:103e60000200fa000002eb00040f78006000370047
:103e70001e027800044278000442b000044078003a
:103e800064fb070000027800840278001e027800bc
:103e9000040342002483200004024300050a780042
:103ea0001e02780004427800a442b000044078006a
:103eb00058fb070000027800840278001e03780097
:103ec0006a024300040342002483200004024300ea
:103ed000050a78001e027800044278004443b000ce
:103ee000044078004bfb0700800278001e03780036
:103ef00074024300040342002483200004024300b0
:103f0000050a78001e027800840242002483200003
:103f1000048242009402780004202000848f520022
:103f2000060034001e027800840242002483200030
:103f30000482420005202000050a78001e02780055
:103f4000840242002483200004824200940278000c
:103f500004e02f00848f520006003d001e0278000e
:103f600084024200248320000482420005e02f00e6
:103f7000050a78009e0278006a82420084024200ac
:103f8000248320000482420014027800e00f5200d3
:103f900007003a001e0378006a02430084024200d0
:103fa000248320000482420015002000050a7800c6
:103fb0009e02780074824200840242002483200022
:103fc0000482420014027800e00f520007003a0019
:103fd0001e03780074024300840242002483200000
:103fe0000482420015002000050a78001e0fe80038
:103ff0001e027800e90f52009dff3400e0c8b300b4
:1040000004fb07000002780054488800f0c8b300a1
:1040100000fb0700000278006448880000c9b30074
:10402000fcfa0700000278007448880010c9b30049
:10403000f8fa0700000278008448880020c9b3001d
:10404000f4fa0700000278009448880030c9b300f1
:10405000f0fa070000027800a44888000002eb0094
:10406000040f7800910037001e02780004427800a7
:104070000444b00004407800e6fa0700000278002b
:10408000840278001e02780004034200e4862000c7
:1040900004024300050a78001e02780004427800fa
:1040a000d444b00004407800dafa07000002780037
:1040b000840278001e0378006d024300040342006e
:1040c000e486200004024300050a78001e027800fe
:1040d00004427800a445b00004407800cdfa0700ff
:1040e000800278001e0378007a0243000403420035
:1040f000e486200004024300050a78001e027800ce
:10410000044278007446b00004407800c1fa070009
:1041100080027800760220001e0243000403420061
:10412000e486200004024300050a78001e0278009d
:10413000044278004447b00004407800b5fa070014
:1041400080027800460320001e0243000403420060
:10415000e486200004024300050a78001e0278006d
:104160008442780014c8b30004c2420004407800be
:10417000a8fa070080027800160420001e024300ff
:1041800004034200e486200004024300050a78008c
:104190009e0278006d82420084024200e486200084
:1041a0000482420014027800e00f520014003a002a
:1041b0001e0378006d02430084024200e486200062
:1041c0000482420015002000050a78009e02780053
:1041d0006d82420084024200e48620000482420094
:1041e00014027800840278001e02780004427800ed
:1041f000d444b00085007800044078004dfb0700ef
:104200001e0378007a02430084024200e486200004
:104210000482420014027800e00f520013003a00ba
:104220009e0278007a82420084024200e4862000e6
:104230000482420015002000050a78001e03780061
:104240007a02430084024200e48620000482420095
:10425000940278001e02780004427800a445b00061
:10426000850078000440780032fb070075022000ca
:104270001e82420084024200e48620000482420042
:1042800014027800e20f5200070036007602200088
:104290001e02430084024200e486200004824200a1
:1042a00025002000050a78001e0fe8001e02780095
:1042b000ec0f52006cff340000cab30055fa07003f
:1042c00000027800144a8800144a8000f00f52005f
:1042d0000600360004012000144a8800144a8000b9
:1042e0008400780000cab30012fb070020ccb300a2
:1042f00048fa070000027800244c8800244c800013
:10430000f00f52000600360004012000244c880003
:10431000244c80008400780020ccb30005fb07000b
:104320000002eb00040f7800650037001e027800e1
:104330008442780024cab30004c2420004407800da
:1043400034fa0700800278001e027800040342005d
:104350004494200004024300050a78001e027800fd
:1043600084024200449420000482420094027800b7
:1043700004772100848f5200120036001e0278005c
:104380008402420044942000048242000577210008
:10439000050a78001e02780084024200449420003e
:1043a00004824200140378001e02780084427800e0
:1043b00024cab30004c2420086007800044078009a
:1043c000dcfa07001e0278008442780024cbb30098
:1043d00004c24200044078000efa07008002780010
:1043e0001e027800040342004496200004024300a9
:1043f000050a78001e0278008442780044ccb3009d
:1044000004c242000440780002fa070080027800eb
:104410001e02780004034200649820000402430056
:10442000050a78001e027800840242006498200089
:10443000048242009402780004772100848f5200a5
:10444000120036001e0278008402420064982000a8
:104450000482420005772100050a78001e027800d8
:104460008402420064982000048242001403780011
:104470001e0278008442780044ccb30004c242009b
:104480008600780004407800aafa07001e0278002f
:104490008442780044cdb30004c242000440780056
:1044a000dcf90700800278001e0278000403420055
:1044b000649a200004024300050a78001e0fe800f9
:1044c0001e027800ef0f520098ff34000080fa00bf
:1044d000000006000200fa000002eb00040f780062
:1044e0008a0037001e02780084024200e486200021
:1044f000048242008002eb00050a78001e02780068
:10450000e90f520008003c009e0278006d824200d4
:1045100084024200e486200004824200550020000c
:10452000050a7800070037009e0278006d8242007d
:1045300084024200e486200004824200150020002c
:10454000050a78001e027800e90f520008003c00be
:104550009e0278007a82420084024200e4862000b3
:104560000482420055002000050a78000700370049
:104570009e0278007a82420084024200e486200093
:104580000482420015002000050a78007502200010
:104590001e82420084024200e4862000048242001f
:1045a0008002eb00050a7800450320001e824200cd
:1045b00084024200e486200004824200f5ff2700c6
:1045c000050a7800150420001e8242008402420081
:1045d000e4862000048242008002eb00050a780095
:1045e0001e02780084024200e48620000482420019
:1045f00014027800840278001e02780004427800d9
:104600000444b000850078000440780049fa0700af
:104610009e0278006d82420084024200e4862000ff
:104620000482420014027800840278001e0278009e
:1046300004427800d444b00085007800044078003b
:104640003cfa07009e0278007a824200840242000f
:10465000e486200004824200940278001e02780062
:1046600004427800a445b00085007800044078003a
:1046700030fa0700750220001e82420084024200c8
:10468000e486200004824200940278001e02780032
:10469000044278007446b000850078000440780039
:1046a00024fa0700450320001e82420084024200d3
:1046b000e486200004824200940278001e02780002
:1046c000044278004447b000850078000440780038
:1046d00018fa0700150420001e82420084024200de
:1046e000e486200004824200140378001e02780051
:1046f0008442780014c8b30004c2420086007800e7
:10470000044078000bfa07001e0fe8001e02780034
:10471000ec0f520073ff34000080fa000000060026
:104720000200fa000002eb00040f78002b003700b3
:104730001e027800c222dd0064f9200004834200da
:104740006022b800048bbe001e027800c222dd0089
:1047500024fa2000048342006022b800048bbe00cb
:104760001e0278008402420024f8200004824200e5
:104770008002eb00050a78001e02780084024200e5
:10478000e4fa2000048242008002eb00050a78006f
:104790001e027800c222dd0064f020000483420083
:1047a0006022b800048bbe001e027800c222dd0029
:1047b00024f12000048342006022b800048bbe0074
:1047c0001e0278008402420004f9200004824200a4
:1047d0008002eb00050a78001e0fe8001e02780038
:1047e000e20f5200d2ff34000002eb00040f780009
:1047f0000d0037001e02780084024200a4912000c0
:10480000048242008002eb00050a78001e02780054
:1048100084024200e4922000048242008002eb0005
:10482000050a78001e0fe8001e027800e90f52000a
:10483000f0ff34000002eb00747c88000080fa0076
:10484000000006000800fa000002eb00040f7800e8
:10485000fb0137001e0278008402420024f8200089
:104860000482420014027800e10f52001b003a005b
:104870009e0278006482420084024200248020006c
:104880000482420014027800e20f52000c003a0049
:104890001e027800c222dd0064f020000482420083
:1048a0001402be0061024200e0824a001e0378004a
:1048b000c233dd0066f0200006834300048bbe0097
:1048c0001e0278008402420024f820000482420084
:1048d0008002eb00050a7800d80137001e0278003c
:1048e0008402420024f8200004824200140278006e
:1048f000e10f5200d10136001e037800640243002c
:1049000084024200248020000482420014027800c5
:10491000e10f5200d7003200e10f520003003900ce
:10492000e20f5200a5013200c40137001e027800d8
:10493000c222dd0024fa2000048242001403be00db
:1049400026079800370798001e027800c222dd0073
:1049500024fa2000048342006022b800048bbe00c9
:104960001e0278008402420024f8200004824200e3
:104970008002eb00050a78002e029000be02900033
:10498000e00f5200e08f5a00ad0032002e0390007d
:10499000be039000f43e200005002000840f530069
:1049a000858f5b0004003e00043f200005002000ce
:1049b00024079800350798002e019000be01900052
:1049c00000d02600d11c200050f407000002be00d9
:1049d0002407980035079800ae0390001707980049
:1049e0009e0278006a8242007a02420084024200fb
:1049f000e486200004824200140378009e037800bd
:104a00006a8243006d02420084024200e486200074
:104a100004824200940278009e0378006a82430078
:104a200084034200e48620000482430014027800dc
:104a30008601780005017800840078001e0090004f
:104a400032f8070000027800140798009e029000d8
:104a50001e0378006a0243004403b00004034200ce
:104a6000e48620000402430014027800848f520080
:104a7000080034009e0378006a8243004403b000bb
:104a800084024200e48620000482420094027800fe
:104a9000150798009e0290001e0378006a024300ea
:104aa0001404b00004034200e48620000402430022
:104ab00014027800848f520008003d009e037800a5
:104ac0006a8243001404b00084024200e48620009d
:104ad0000482420094027800150798001e037800b3
:104ae0006a0243007402b00084024200e48620009f
:104af0000482420014027800e10f520011003a00d3
:104b00001e027800c222dd0064f020000482420010
:104b10001403be001e0290000500200006024200a1
:104b200087824a008502d1000482d3001e037800e8
:104b3000c233dd0066f0200006834300048bbe0014
:104b40003e0137009e0378006a8243007402b00081
:104b500084024200e48620000482420014027800ad
:104b6000e20f520028003a001e027800c222dd0047
:104b700024f12000048242001402be00e00f520023
:104b8000e08f5a00110032001e027800c222dd00c0
:104b900024f12000048242001403be001e02900093
:104ba000050020000602420087824a008502d100eb
:104bb0000482d3001e037800c233dd0066f02000bb
:104bc00006834300048bbe00070037001e029000de
:104bd000050020001e037800c233dd0066f02000cf
:104be00006834300048bbe001e02900005002000d7
:104bf0001e037800c233dd0026f120000683430047
:104c0000048bbe000d0137001e029000050020003d
:104c10001e037800c233dd0066f0200006834300e7
:104c2000048bbe001e027800c222dd0024f12000a9
:104c3000048342006022b800048bbe00ff003700ee
:104c40001e027800c222dd0064f0200004834200ce
:104c50006022b800048bbe001e027800c222dd0074
:104c600024f12000048342006022b800048bbe00bf
:104c7000f20037001e027800c222dd0024fa200074
:104c8000048242001403be002607980037079800ec
:104c90001e027800c222dd0024fa200004834200b4
:104ca0006022b800048bbe001e027800840242001d
:104cb00024f82000048242008002eb00050a7800fc
:104cc0002e029000be029000e00f5200e08f5a00ca
:104cd000ad0032002e039000be039000740a200045
:104ce00005002000840f5300858f5b0004003e0008
:104cf000840a20000500200024079800350798004a
:104d00002e019000be01900000782e00c10420000a
:104d10007ef307000002be002407980035079800c4
:104d2000ae039000170798009e0278006a82420046
:104d30007a02420084024200e4862000048242009b
:104d4000140378009e0378006a8243006d024200db
:104d500084024200e486200004824200940278002b
:104d60009e0378006a82430084034200e4862000a8
:104d7000048243001402780086017800050178005f
:104d8000840078001e00900060f7070000027800a1
:104d9000140798009e0290001e0378006a024300e8
:104da0004403b00004034200e486200004024300f0
:104db00014027800848f5200080034009e037800ab
:104dc0006a8243004403b00084024200e48620006b
:104dd0000482420094027800150798009e02900019
:104de0001e0378006a0243001404b000040342006a
:104df000e48620000402430014027800848f5200ed
:104e000008003d009e0378006a8243001404b0004d
:104e100084024200e486200004824200940278006a
:104e2000150798001e0378006a0243007402b00060
:104e300084024200e48620000482420014027800ca
:104e4000e10f520011003a001e027800c222dd007c
:104e500064f02000048242001403be001e02900091
:104e6000050020000602420087824a008502d10028
:104e70000482d3001e037800c233dd0066f02000f8
:104e800006834300048bbe006c0037009e0378004d
:104e90006a8243007402b00084024200e48620006b
:104ea0000482420014027800e20f520028003a0007
:104eb0001e027800c222dd0024f12000048242009c
:104ec0001402be00e00f5200e08f5a0011003200c1
:104ed0001e027800c222dd0024f12000048242007c
:104ee0001403be001e0290000500200006024200ce
:104ef00087824a008502d1000482d3001e03780015
:104f0000c233dd0066f0200006834300048bbe0040
:104f1000070037001e029000050020001e037800e5
:104f2000c233dd0066f0200006834300048bbe0020
:104f30001e029000050020001e037800c233dd0031
:104f400026f1200006834300048bbe003b0037009f
:104f50001e029000050020001e037800c233dd0011
:104f600066f0200006834300048bbe001e0278001a
:104f7000c222dd0024f12000048342006022b80038
:104f8000048bbe002d0037001e027800c222dd0017
:104f900064f02000048342006022b800048bbe004d
:104fa0001e027800c222dd0024f1200004834200aa
:104fb0006022b800048bbe00200037001e0278007b
:104fc0008402420024f82000048242001402780087
:104fd000e30f52000c0032001e027800c222dd00f6
:104fe00064f02000048242001402be00610242000c
:104ff000e0824a001e037800c233dd0066f0200024
:1050000006834300048bbe001e027800c222dd002e
:1050100024fa2000048342006022b800048bbe0002
:105020001e0278008402420024f82000048242001c
:105030008002eb00050a7800000000001e0fe80067
:105040001e027800e20f520002fe3600544080003b
:10505000e30f520007003a00941680004622de005b
:10506000614262000482fb00050020003478880061
:105070004578880064408000e30f520007003a0042
:10508000941680004722de00614262000482fb0029
:1050900005002000547888006578880074408000fe
:1050a000e30f520007003a00941680004422de000d
:1050b000614262000482fb000500200074788800d1
:1050c000857888000080fa00000006000000fa00e1
:1050d000b45b8000e10f5200a2043a0001cb2c0027
:1050e00060a0200047f6070000027800e10f5200a0
:1050f0000b003a008afd070000002c0091182000e8
:105100007519070034002000e47e88001400200098
:10511000c45b88000002eb00c44888008d0437009f
:1051200051cb2c0060a0200036f60700000278006a
:10513000e10f520005003a0014002000e47e8800d0
:105140000002eb00c448880082043700a1cb2c0089
:1051500060a020002bf6070000027800e10f52004b
:105160007c04320001cc2c0060a0200025f6070052
:1051700000027800e10f52007604320031cc2c009e
:1051800060a020001ff6070000027800e10f520027
:1051900007003a0024002000e47e8800240020005c
:1051a000d47e880014002000c448880069043700b9
:1051b00071cc2c0060a0200012f6070000027800dd
:1051c000e10f520005003a0024002000e47e880030
:1051d000f4022000d47e88005e04370001cd2c004c
:1051e00060a0200007f6070000027800e10f5200df
:1051f00008003a0034002000e47e880014002000fb
:10520000c45b88000002eb00c448880044fd07002e
:105210005004370041cd2c0060a02000f9f50700b4
:1052200000027800e10f520009003a00240020003b
:10523000e47e8800e4022000d47e88001400200070
:10524000c45b88000002eb00c448880041043700ba
:1052500081cd2c0060a02000eaf507000002780054
:10526000e10f520005003a0024002000e47e88008f
:1052700004032000d47e880036043700b1cd2c0012
:1052800060a02000dff5070000027800e10f520067
:1052900005003a0024002000e47e8800340020004d
:1052a000d47e88002b04370001ce2c0060a02000a3
:1052b000d4f5070000027800e10f520016003a0012
:1052c00044002000d47e88000002eb00e44f8800f8
:1052d000c4a020009459880024b320000400780062
:1052e0002ef3070000027800e44f8800e44f8000ae
:1052f000e00f520002003a0024408000e44f880092
:10530000e44f8000e30f5200120436003400200006
:10531000e44f88000f04370071ce2c0060a02000fd
:10532000b8f5070000027800e10f52002b003a00a8
:1053300054002000d47e88000002eb00e44f880077
:10534000c4a020009459880024b3200004007800f1
:1053500012f3070000027800e44f8800e44f800059
:10536000e50f5200ee033200e50f520007003e0049
:10537000e10f5200ec033200e10f5200110039003e
:10538000e20f5200ea03320011003700f40f52001e
:10539000e9033200f40f520003003e00ea0f52000e
:1053a000e70332000a00370025032000850f520072
:1053b000e503320045062000850f5200e403320069
:1053c0000300370034408000e44f8800e1033700d9
:1053d00044012000e44f8800de033700e1ce2c00ba
:1053e00060a0200087f5070000027800e10f52005e
:1053f00014003a0064002000d47e88000002eb0014
:10540000e44f880085a020009542780004c3b300d3
:1054100084cf52000500340084a02000144278009c
:105420000402fb001403b100e44f8800e44f800045
:10543000e90f5200c703360094002000e44f8800b3
:10544000c403370011cf2c0060a020006df50700c9
:1054500000027800e10f520014003a0074002000ae
:10546000d47e88000002eb00e44f880085a0200075
:105470009542780004c3b30084cf52000500340085
:1054800084a02000144278000402fb001403b10041
:10549000e44f8800e44f8000e90f5200ad0336006e
:1054a00094002000e44f8800aa03370041cf2c006d
:1054b00060a0200053f5070000027800e10f5200c1
:1054c00014003a0084002000d47e88000002eb0023
:1054d000e44f880085a020009542780004c3b30003
:1054e00084cf52000500340084a0200014427800cc
:1054f0000402fb001403b100e44f8800e44f800075
:10550000e20f52009303360024002000e44f88008d
:105510009003370071cf2c0060a0200039f5070000
:1055200000027800e10f520016003a00a4002000ab
:10553000d47e88000002eb00e44f880084a02000a5
:105540009459880024b320000400780093f20700e7
:1055500000027800e44f8800e44f8000e00f520022
:1055600002003a0014002000e44f8800e44f80005d
:10557000ea0f520077033600a4002000e44f8800b1
:1055800074033700a1cf2c0060a020001df5070098
:1055900000027800e10f520016003a00c40020001b
:1055a000d47e88000002eb00e44f880084a0200035
:1055b0009459880024b320000400780077f2070093
:1055c00000027800e44f8800e44f8000e00f5200b2
:1055d00002003a0014002000e44f8800e44f8000ed
:1055e000ed0f52005b033600d4002000e44f88002a
:1055f00058033700d1cf2c0060a0200001f5070030
:1056000000027800e10f520016003a002401200049
:10561000d47e88000002eb00e44f880094a02000b4
:105620009459880024b32000040078005bf207003e
:1056300000027800e44f8800e44f8000e00f520041
:1056400002003a0014002000e44f8800e44f80007c
:10565000ed0f52003f033600d4002000e44f8800d5
:105660003c03370011d02c0060a02000e5f40700b7
:1056700000027800e10f52001d003a006401200092
:10568000d47e88000002eb00e44f88000002eb00ab
:10569000f44f880094a020009459880024b320007f
:1056a000040078003df2070000027800e44f880013
:1056b000e44f8000e00f520002003a001400200086
:1056c000e44f8800e44f8000ed0f520002003600e6
:1056d000d4002000e44f880024b3200004007800a8
:1056e0002ef2070000027800f44f880019033700fb
:1056f00051d02c0060a02000c2f407000002780006
:10570000e10f520016003a0034012000d47e8800d8
:105710000002eb00e44f880094a020009459880018
:1057200024b32000040078001cf207000002780077
:10573000e44f8800e44f8000e00f520002003a007e
:1057400014002000e44f8800e44f8000ed0f520069
:1057500000033600d4002000e44f8800fd0237002b
:1057600091d02c0060a02000a6f407000002780071
:10577000e10f520022003a0074012000d47e88001c
:105780000002eb00e44f88000002eb00f44f8800b9
:1057900094a020009459880024b3200004007800cd
:1057a000fef1070000027800e44f8800e44f80001b
:1057b000e00f520002003a0014002000e44f88007d
:1057c000e44f8000ed0f520002003600d4002000ac
:1057d000e44f880024b3200004007800eff10700b4
:1057e00000027800f44f8800f44f8000e00f520070
:1057f000d8023a0014002000f44f8800d502370088
:10580000d1d02c0060a020007ef4070000027800b8
:10581000e10f520016003a0044012000d47e8800b7
:105820000002eb00e44f880094a020009459880007
:1058300024b3200004007800d8f1070000027800ab
:10584000e44f8800e44f8000e00f520002003a006d
:1058500014002000e44f8800e44f8000ed0f520058
:10586000bc023600d4002000e44f8800b9023700a3
:1058700011d12c0060a0200062f407000002780023
:10588000e10f520022003a0084012000d47e8800fb
:105890000002eb00e44f88000002eb00f44f8800a8
:1058a00094a020009459880024b3200004007800bc
:1058b000baf1070000027800e44f8800e44f80004e
:1058c000e00f520002003a0014002000e44f88006c
:1058d000e44f8000ed0f520002003600d40020009b
:1058e000e44f880024b3200004007800abf10700e7
:1058f00000027800f44f8800f44f8000e00f52005f
:1059000094023a0014002000f44f880091023700fe
:1059100051d12c0060a020003af40700000278006a
:10592000e10f520016003a0054012000d47e880096
:105930000002eb00e44f880094a0200094598800f6
:1059400024b320000400780094f1070000027800de
:10595000e44f8800e44f8000e00f520002003a005c
:1059600014002000e44f8800e44f8000ed0f520047
:1059700078023600d4002000e44f8800750237001a
:1059800091d12c0060a020001ef4070000027800d6
:10599000e10f52002b003a0094012000d47e8800d1
:1059a0000002eb00e44f88000002eb00f44f880097
:1059b00094a020009459880024b3200004007800ab
:1059c00076f1070000027800e44f8800e44f800081
:1059d000e00f520002003a0014002000e44f88005b
:1059e000e44f8000ed0f520002003600d40020008a
:1059f000e44f880024b320000400780067f107001a
:105a000000027800f44f8800e44f8000ea0f520053
:105a100006003600f44f8000e20f52004d023600bf
:105a200024002000f44f88004a023700f44f800021
:105a3000e20f52004702360024002000f44f880095
:105a400044023700d1d12c0060a02000edf3070004
:105a500000027800e10f520018003a001402200002
:105a6000d47e88000002eb00e44f88000002eb00c7
:105a7000f44f880094a020009459880024b320009b
:105a80000400780045f1070000027800e44f880028
:105a9000e44f8000e00f520002003a0014002000a2
:105aa000e44f8800e44f8000ea0f520029023600dc
:105ab000a4002000e44f88002602370011d22c00f9
:105ac00060a02000cff3070000027800e10f520031
:105ad00022003a0024022000d47e88000002eb005d
:105ae000e44f88000002eb00f44f880094a02000ef
:105af0009459880024b320000400780027f107009f
:105b000000027800e44f8800e44f8000e00f52006c
:105b100002003a0014002000e44f8800e44f8000a7
:105b2000ea0f520002003600a4002000e44f880073
:105b300024b320000400780018f107000002780068
:105b4000f44f8800f44f8000e20f5200010236004b
:105b500024002000f44f8800fe01370051d22c00b1
:105b600060a02000a7f3070000027800e10f5200b8
:105b700018003a0034022000d47e88000002eb00b6
:105b8000e44f88000002eb00f44f880094a020004e
:105b90009459880024b3200004007800fff0070027
:105ba00000027800e44f8800e44f8000e00f5200cc
:105bb00002003a0014002000e44f8800e44f800007
:105bc000e30f5200e301360034002000e44f880068
:105bd000e001370091d22c0060a0200089f307007b
:105be00000027800e10f520022003a004402200037
:105bf000d47e88000002eb00e44f88000002eb0036
:105c0000f44f880094a020009459880024b3200009
:105c100004007800e1f0070000027800e44f8800fb
:105c2000e44f8000e00f520002003a001400200010
:105c3000e44f8800e44f8000e30f5200020036007a
:105c400034002000e44f880024b3200004007800d2
:105c5000d2f0070000027800f44f8800f44f800073
:105c6000e30f5200bb01360034002000f44f8800df
:105c7000b8013700d1d22c0060a0200061f30700ea
:105c800000027800e10f520018003a005402200090
:105c9000d47e88000002eb00e44f88000002eb0095
:105ca000f44f880094a020009459880024b3200069
:105cb00004007800b9f0070000027800e44f880083
:105cc000e44f8000e00f520002003a001400200070
:105cd000e44f8800e44f8000e30f52009d0136003e
:105ce00034002000e44f88009a01370011d32c00c3
:105cf00060a0200043f3070000027800e10f52008b
:105d000028003a0064022000d47e88000002eb00e4
:105d1000e44f88000002eb00f44f880094a02000bc
:105d20009459880024b32000040078009bf00700f9
:105d300000027800e44f8800e44f8000e00f52003a
:105d400002003a0014002000e44f8800e44f800075
:105d5000e30f52000200360034002000e44f8800b8
:105d600024b32000040078008cf0070000027800c3
:105d7000f44f8800f54f8000843e2000848f52004d
:105d800002003600843e2000f44f8800f44f80006b
:105d9000e00f52006f013a0014002000f44f880019
:105da0006c01370051d32c0060a0200015f30700d0
:105db00000027800e10f520018003a00740220003f
:105dc000d47e88000002eb00e44f88000002eb0064
:105dd000f44f880094a020009459880024b3200038
:105de000040078006df0070000027800e44f88009e
:105df000e44f8000e00f520002003a00140020003f
:105e0000e44f8800e44f8000e30f52005101360058
:105e100034002000e44f88004e01370091d32c005d
:105e200060a02000f7f2070000027800e10f5200a6
:105e300028003a0084022000d47e88000002eb0093
:105e4000e44f88000002eb00f44f880094a020008b
:105e50009459880024b32000040078004ff0070014
:105e600000027800e44f8800e44f8000e00f520009
:105e700002003a0014002000e44f8800e44f800044
:105e8000e30f52000200360034002000e44f880087
:105e900024b320000400780040f0070000027800de
:105ea000f44f8800f44f8000e00f520002003a00e7
:105eb00014002000f44f8800f54f8000843e20003d
:105ec000848f520023013600843e2000f44f880066
:105ed00020013700d1d32c0060a02000c9f20700b8
:105ee00000027800e10f520005003a00e4002000b3
:105ef000d47e88000002eb00e44f880015013700d3
:105f000041d42c0060a02000bef2070000027800ff
:105f1000e10f520005003a00a4012000d47e880061
:105f20000002eb00e44f88000a01370091d42c00f6
:105f300060a02000b3f2070000027800e10f5200d9
:105f400010003a00b4012000d47e8800a4a02000f4
:105f50009459880024b32000040078000ff0070053
:105f600000027800e44f8800e54f8000c403200061
:105f7000848f5200f7003600c4032000e44f8800ed
:105f8000f4003700e1d42c0060a020009df207004f
:105f900000027800e10f520012003a009402200043
:105fa000d47e88000002eb00e44f880084a020002b
:105fb0009459880024b3200004007800f7ef07000c
:105fc00000027800e44f8800e54f8000f40f2000c5
:105fd000848f5200df003600f40f2000e44f880069
:105fe000dc00370011d52c0060a0200085f20700ee
:105ff00000027800e10f520019003a00a4022000cc
:10600000d47e88000002eb00e44f88000002eb0021
:10601000f44f880084a020009459880024b3200005
:1060200004007800ddef070000027800e44f8800ec
:10603000e54f8000f40f2000848f520002003600ec
:10604000f40f2000e44f880024b3200004007800ff
:10605000d2ef070000027800f44f8800bd0037003f
:1060600041d52c0060a0200066f2070000027800f5
:10607000e10f520005003a00b4022000d47e8800ef
:106080000002eb00e44f8800b2003700b1d52c00cd
:1060900060a020005bf2070000027800e10f5200d0
:1060a00007003a00c4022000d47e8800a4a020008b
:1060b000945988000002eb00e44f8800a5003700e7
:1060c00001d62c0060a020004ef2070000027800ec
:1060d000e10f520005003a0014032000d47e88002e
:1060e0000002eb00e44f88009a00370021d62c0014
:1060f00060a0200043f2070000027800e10f520088
:1061000016003a00f4002000d47e88000002eb0064
:10611000e44f880094a020009459880024b3200004
:10612000040078009def070000027800e44f88002b
:10613000e44f8000e00f520002003a0014002000fb
:10614000e44f8800e44f8000e20f520081003600e7
:1061500024002000e44f88007e00370061d62c0028
:1061600060a0200027f2070000027800e10f520033
:1061700027003a0004012000d47e88000002eb00d2
:10618000e44f88000002eb00f44f880094a0200048
:106190009459880024b32000040078007fef0700a2
:1061a00000027800e44f8800e44f8000e00f5200c6
:1061b00002003a0014002000e44f8800e44f800001
:1061c000e20f52000200360024002000e44f880055
:1061d00024b320000400780070ef0700000278006c
:1061e000f44f8800f44f8000e10f520002003e009f
:1061f00024002000f44f8800f44f8000f00f52007c
:106200005400360004012000f44f8800510037008c
:10621000a1d62c0060a02000faf10700000278004f
:10622000e10f52003b003a0014012000d47e8800a8
:106230000002eb00e44f88000002eb00f44f8800fe
:106240000002eb00045088000002eb0014508800ac
:1062500094a020009459880024b320000400780002
:106260004eef070000027800e44f8800e44f800002
:10627000e00f520002003a0014002000e44f8800b2
:10628000e44f8000e20f520002003600240020009c
:10629000e44f880024b32000040078003fef07009b
:1062a00000027800f44f8800f44f8000e00f5200a5
:1062b00002003a0014002000f44f8800f44f8000e0
:1062c000f00f52000200360004012000f44f880055
:1062d00024b320000400780030ef070000027800ab
:1062e000045088000550800004772100848f5200fc
:1062f00002003600047721000450880024b32000f7
:106300000400780025ef0700000278001450880090
:106310001000370014002000d47e88000d003700e4
:10632000000000000b0037000000000009003700eb
:1063300000000000070037000000000005003700e3
:1063400000000000030037000000000001003700db
:10635000000000000002eb00b45b88000002eb00cc
:10636000a45b88000080fa00000006000800fa0024
:10637000881f7800b4488000e00f52008c01320082
:106380000002eb00040f780082013700b44880005f
:10639000e10f52000b003a001e0278008402420016
:1063a000a4c92c0004824200140278008402420036
:1063b00004312200048242009402780015079800fc
:1063c0000a0037001e02780084024200a4c92c0093
:1063d000048242001402780084024200042d22004c
:1063e0000482420014037800160798001e029000f1
:1063f000e00f5200180032009e02780074824200c2
:1064000084024200248320000482420014037800a6
:106410009e0278006a8242008402420024832000a7
:1064200004824200940278001e0278008403420035
:10643000248320000482430014027800860178003f
:1064400005017800840078001e009000aff107007d
:1064500000027800140798001e029000e00f52001e
:1064600002003d000002eb00140798001e037800b4
:106470006d02430084024200248020000482420016
:1064800014027800e00f520085003a009e02780066
:106490007a82420084024200e486200004824200a4
:1064a000140378009e0278006d824200840242004c
:1064b000e486200004824200940278001e027800e4
:1064c00084034200e4862000048243001402780022
:1064d0008601780005017800840078001e00900095
:1064e0008af1070000027800140798009e029000cd
:1064f000460320001e02430004034200e4862000fd
:106500000402430014027800848f52000700340014
:10651000450320001e82420084024200e4862000df
:106520000482420014037800160798009e0290002f
:10653000160420001e02430004034200e4862000eb
:106540000402430014027800848f520007003d00cb
:10655000150420001e82420084024200e4862000ce
:106560000482420014037800160798007502200088
:106570001e82420084024200e4862000048242001f
:1065800014027800e10f52000e003a001e0278005b
:1065900084024200a4912000048242009402780008
:1065a0001e029000048242008402d1001e02780084
:1065b00004034200a491200004024300050a78006d
:1065c000f3003700760220001e02430084024200de
:1065d000e48620000482420014027800e20f520098
:1065e00022003a001e02780084024200e492200059
:1065f0000482420014027800e00f52000e003200c4
:106600001e02780084024200e492200004824200cc
:10661000940278001e029000048242008402d1009d
:106620001e02780004034200a491200004024300eb
:10663000050a7800060037001e0278008402420036
:10664000a4912000048242009e029000050a780076
:106650001e02780084024200e4922000048242007c
:106660001e039000060a7800c90037001e02780059
:1066700084024200a4912000048242009e02900005
:10668000050a78001e02780084024200e49220008d
:10669000048242008002eb00050a7800bc0037004b
:1066a0001e0378006d024300840242002480200013
:1066b0000482420014027800e10f520003003a0005
:1066c000144a8000340798000d0037009e027800bd
:1066d0006d82420084024200248020000482420035
:1066e00014027800e20f520003003a00264c8000aa
:1066f00036079800020037000002eb0034079800cc
:106700003e029000e10f5200950036000002eb00bf
:10671000240798008d0037009e0278006d824200a9
:106720008402420024802000048242001402780087
:10673000e10f52003d003a002e0290008402420018
:106740004494200004824200940278001e029000cb
:10675000848f52007a003e002e0290000402e8006e
:106760008402420044942000048242009402780093
:106770001e029000848f5200710036002e0290009d
:1067800084024200449620000482420014047800ef
:106790002e0290000402e80084024200449420008b
:1067a00004824200940278002e029000040342000a
:1067b0004494200004024300140278000483520031
:1067c0002e0290000402e800840242004496200059
:1067d0000482420014027800840278002e029000a5
:1067e000840342004496200004824300140278008f
:1067f000848252002e0290008403420044942000c0
:1068000004824300140278008601780005017800b4
:10681000840078001e009000bcf0070000027800a1
:1068200004024400140798004d0037001e0378004e
:106830006d02430084024200248020000482420052
:1068400014027800e20f52003d003a002e02900040
:10685000840242006498200004824200940278007e
:106860001e029000848f520035003e002e029000e0
:106870000402e8008402420064982000048242007e
:10688000940278001e029000848f52002c00360083
:106890002e02900084024200649a2000048242008a
:1068a000140478002e0290000402e80084024200e2
:1068b0006498200004824200940278002e02900026
:1068c000040342006498200004024300140278008c
:1068d000048352002e0290000402e8008402420069
:1068e000649a200004824200140278008402780036
:1068f0002e02900084034200649a20000482430028
:1069000014027800848252002e0290008403420018
:106910006498200004824300140278008601780005
:1069200005017800840078001e00900077f00700d1
:1069300000027800040244001407980008003700a1
:106940002e0290000402e800240798003e02900006
:106950008402e9002e029000848f52006eff3e00f8
:106960001e02780084024200a491200004824200aa
:106970009e029000050a78001e0278008402420000
:10698000e4922000048242008002eb00050a7800b5
:106990001e0fe8001e027800e90f52007bfe360051
:1069a0000002eb00b448880014002000a44f8800c7
:1069b0004f0478000080fa00000006000400fa008e
:1069c000881f7800a44f8000e00f5200750132004c
:1069d000e47e8000e30f520070013a002440800002
:1069e000e10f520006003a00e1d62c00805a220046
:1069f000e4ef070000027800b44f88001100370070
:106a000024408000e20f520006003a0061d72c00bb
:106a1000805a2200dbef070000027800b44f8800a4
:106a20000800370024408000e30f520005003a00c0
:106a3000e1d72c00805a2200d2ef07000002780034
:106a4000b44f88005df30700b54f8000c45b800041
:106a500085007800040078008eed070000027800c1
:106a6000b44f8800c45b80000402e800c45b880067
:106a7000b44f800051d82c0004007800c1ef07000b
:106a800000027800b44f880067f307000002780026
:106a9000140798005448800003802000823e2000a4
:106aa000840078001e00900018f0070000027800b3
:106ab00014079800b54f80001e02900085007800f2
:106ac000040078002fee070000027800b44f880021
:106ad000b44f800051d82c0004007800a9ef0700c3
:106ae00000027800b44f880054f3070000027800d9
:106af000140798006448800003802000823e200034
:106b0000840078001e00900000f00700000278006a
:106b100014079800b54f80001e0290008500780091
:106b20000400780017ee070000027800b44f8800d8
:106b3000b44f800051d82c000400780091ef07007a
:106b400000027800b44f880041f30700000278008b
:106b5000140798007448800003802000823e2000c3
:106b6000840078001e009000e8ef07000002780023
:106b700014079800b54f80001e0290008500780031
:106b800004007800ffed070000027800b44f880091
:106b9000b44f800051d82c000400780079ef070032
:106ba00000027800b44f880024408000e20f5200b9
:106bb000480032002bf30700000278001407980009
:106bc0008448800003802000122720008400780081
:106bd0001e009000cdef0700000278001407980017
:106be000b54f80001e0290008500780004007800f8
:106bf0005aee070000027800b44f8800b44f8000be
:106c000051d82c00040078005eef070000027800e5
:106c1000b44f880018f307000002780014079800aa
:106c20009448800003802000122720008400780010
:106c30001e009000b5ef07000002780014079800ce
:106c4000b54f80001e029000850078000400780097
:106c500042ee070000027800b44f8800b44f800075
:106c600051d82c000400780046ef0700000278009d
:106c7000b44f880005f3070000027800140798005d
:106c8000a4488000038020001227200084007800a0
:106c90001e0090009def0700000278001407980086
:106ca000b54f80001e029000850078000400780037
:106cb0002aee070000027800b44f8800b44f80002d
:106cc00051d82c00040078002eef07000002780055
:106cd000b44f8800b64f800034788000457880003b
:106ce000040278008600780004007800e9ec0700d0
:106cf00000027800b44f880024408000e10f520069
:106d00000f003600b44f800051d82c0004007800ea
:106d10001cef070000027800b44f8800b64f8000d7
:106d2000547880006578800004027800860078003e
:106d300004007800d7ec070000027800b44f880008
:106d400024408000e30f52000f003a00b44f80004f
:106d500051d82c00040078000aef070000027800e8
:106d6000b44f8800b64f800074788000857880002a
:106d7000040278008600780004007800c5ec070063
:106d800000027800b44f880024408000e10f5200d8
:106d900003003a0054002000140798000500370053
:106da00024408000e10f52000200360084002000e1
:106db000140798000002eb00040f7800120037005f
:106dc000b44f8000c5022000050a7800b44f80004f
:106dd0000482e800b44f8800b54f80001e0278009e
:106de00004034200a491200004024300140278002e
:106df0008500780004007800a6ec07000002780007
:106e0000b44f88001e0fe8001e0290009e0278001a
:106e1000848f5200eaff390024408000e30f5200c3
:106e200014003a00b44f8000c5022000050a780023
:106e3000b44f80000482e800b44f8800b54f800052
:106e40006449800026032000040343004406200018
:106e5000110009000483d8000002780001037800c3
:106e60008500780004007800bced0700000278007f
:106e7000b44f8800b44f8000a5022000050a7800b6
:106e8000b44f80000482e800b44f88000042eb0059
:106e90000002fd007eebb7000002fd00845a2200d4
:106ea000c44f8800c44f8000940278004402200040
:106eb000848f520011003a00c44f80000482e80021
:106ec000c44f88000e003700c44f800014027800c1
