:020000040000fa
:08000000020c040000000000e6
:020000040000fa
:10180000050000006ffe2000002c2200000188006f
:10181000000000000c000700a0712500010020005e
:1018200011000700000020000000e000020032006c
:1018300000000200000000009644020000000000ca
:101840000040da000000fe004440a90000592000da
:101850000000e0000300320000002000a00188002a
:101860004440a80000000600910188008000780034
:101870000000eb0015003700e280400032a0b40009
:101880009101ba00e280400032a0b4009102ba0097
:10189000e280400032a0b4000002eb00472bde00e3
:1018a000f507b200602ce10004003a000059eb009b
:1018b0008301e900fdff3e00040037006128e100dc
:1018c000010032000082eb00040007001101ba00a1
:1018d0000200e000e8ff3a00000006003159ba00bb
:1018e0008301e9000c0032002159ba008301e900ac
:1018f000080032000400e00003003a00e2804000eb
:1019000032a0b400f5ff370011d9ba008301e90015
:10191000faff3a008100e800e180400032a0b40004
:1019200000000600839f68000100e00002003d0007
:1019300060001000e08018000300e00002003d009d
:1019400060011100e0811900050007004f00e00070
:1019500002003b0060001000e0801800000006005c
:101960006022b800060220000000d0008180d20072
:101970000482d2008582d2000000a0000202520040
:1019800083825a00030031000202420083824a002f
:101990000000a1000603e900f3ff3a000000060082
:1019a000881f7800000478005001be004000be008f
:1019b00004004000858048000601490087814900f5
:1019c000009cbe000294be000400e1000588e10016
:1019d0000690e1000798e100020031006800440031
:1019e0001008e8004f04780000000600f487470064
:1019f000889fbe008a9fbe008c9fbe008e1f78000d
:101a00000205be000004be00d4b79f00e5b79f00ea
:101a1000f6b79f0087bf9f000000eb00c0b79f0094
:101a2000b0b79f00a0b79f0090b79f0080b79f00fe
:101a30000d042000bfb097004fb097000001400098
:101a40000000e0000f003d004f08de0000007100c4
:101a5000c0b79f009e00070001003d00120020005b
:101a6000a100070001003d0012002000a6000700b1
:101a7000b1000700b60007000f004000c8ff0700d4
:101a8000220037004f08de0000067100ccb79f002f
:101a90008f00070001003d001200200092000700a7
:101aa00001003d001200200097000700a20007007f
:101ab0000fb297009fb297002fb39700bfb3970064
:101ac000a90007000000520081805a0002015b005b
:101ad00083815b0080b79f0091b79f00a2b79f00f2
:101ae000b3b79f000007eb009f0007000020e10054
:101af00001a8e10002b0e10003b8e10001003100fb
:101b00001e0020000e005600c0b79f004fb2970085
:101b10000400e00007003500100020000100200054
:101b20006011b80008047000898470000a05710013
:101b30008b8571008d06e900beff3a000400e000cd
:101b400003003d00820007000f00400094ff0700e3
:101b50004fa897000000e00004003a000fb497007f
:101b60009fb497002fb59700bfb59700940007006a
:101b70004f0778004f06be004f05be004f04be0061
:101b80004f01b10000000600881f780018002000f7
:101b9000881f780095ff07008f87e9004f047800c1
:101ba00000000600801feb0090ff07008f87e90010
:101bb00000000600889fbe008a9fbe008c1f780030
:101bc0006e00070007003d0073000700e00f5b0098
:101bd000e08f5b0007003d00320007000006eb00cd
:101be000040037003400070002003d002a0007000f
:101bf0001c00200072000700e3ff07000203be0084
:101c00000002be000c00e0000100320022000700cc
:101c10000400be000601be004f0678004f05be005e
:101c20004f04be0000000600889fbe008a9fbe00d1
:101c30008c1f78005100070005003d00560007008a
:101c4000e00f5b00e08f5b0006003d000400370002
:101c50001900070003003d006000b8006011b800e3
:101c60001000070056000700ceff07000203be0069
:101c70000002be000c00e000010032000600070078
:101c80000400be000601be004f0678004f05be00ee
:101c90004f04be00000006006000b8006011b800ec
:101ca00000003700040250008582580006035900e6
:101cb00087835900000006000006eb00e00f520089
:101cc000e08f5a00e00f5b00e08f5b000000060031
:101cd0000180400090b79f000001eb008fb097009b
:101ce0000100e000000006000200700090b79f00b5
:101cf0000180400080b79f000001eb00ffa8970023
:101d00000100e000000006000200700080b79f00a4
:101d1000018040006faa9700cf20de000100700014
:101d2000f0af9f0004024200250007004f18de00bc
:101d30000002720000000600e4af9f0008044400a7
:101d400089844c000a054d008b854d00000006007b
:101d50003fb29700cfb297005fb39700efb3970001
:101d600000fe2f00000006003fb09700cfb09700a4
:101d70005fb19700efb19700000006000205be00ba
:101d80000004be00e00f5000e08f5800e00f590043
:101d9000e08f5900000006006000b8006011b80034
:101da00008045000898458000a0559008b855900a1
:101db0001c002000e00f5200e08f5a0000000600d7
:101dc0000800be000a01be000000060006a2a9002d
:101dd0000682a8000000060008c2bf000000d10073
:101de000610060000000060006c2bf000008a300fa
:101df000fdff3a0006c2bf000028a300faff3a0028
:101e000006c2bf000038a300f7ff3a0006c2bf00b9
:101e10000018a300f4ff3a0006c2bf000048a30068
:101e2000f1ff3a0009c2bf000068a300eeff3a00cc
:101e3000000006000662a80006c2bf000038a3002a
:101e4000fdff3a0008c2a900001080000080fb00de
:101e5000000006000080fb00101088000080eb00ee
:101e60000842e2000800350009c2bf000068a30074
:101e7000fdff3a00dcff0700e0ff2f000942e2000f
:101e8000010035000000eb000000060006a2a800db
:101e90000682a800000006000622a8000000060036
:101ea0000602a800000006000642a8000000060086
:101eb00021e2a9009560a9009580a9008560a9008c
:101ec0008580a9000000060031e2a90097c0a900a2
:101ed00097e0a90087c0a90087e0a90000000600dc
:101ee00042118800001188001111880000000600ce
:101ef000c21188008011880091118800000006003e
:101f000020c2bf0066406000e64f500002003a0069
:101f1000301180000000060030118000f00fb20088
:101f20000000060030c2bf0066406000e64f50006f
:101f300002003a00b011800000000600b0118000dd
:101f4000f00fb20000000600800078000001780069
:101f500030c2bf0066406000e64f500010003a00fb
:101f60000500370033c2bf000018a300fdff3a0090
:101f7000a21188008180e800110178000200e000d1
:101f8000f8ff3a000000060033c2bf000018a300ab
:101f9000fdff3a000100fb00a01188000201e800eb
:101fa000924078000104e000f7ff3a0000000600cc
:101fb0000000fa0085a0a9000080fa000040060099
:101fc000801f78000000fa00e2c3bf00614060009b
:101fd0000080fb00007f8800007f80000000e000a0
:101fe00003003a0010002000b048880002003700cb
:101ff00020002000b04888008480a9002043a90068
:102000000080fa004f007800004006000000fa004f
:102010000138200091407800f0ccb30000c060008f
:1020200080e3b7000138200091407800c0cfb300b2
:1020300000c060000014a00080e3b7000030200062
:10204000401c8800a0002000501c8800d000200008
:10205000101c880000312000201c8800002d20006a
:10206000301c88008480a9009480a800a600a800e5
:1020700081e3a8000080fa00000006000000fa00da
:1020800021e3a900404e2000001988008042220070
:1020900010198800f0c02000201988000000eb0013
:1020a000901988000000eb00401988000000eb0048
:1020b0003019880000002e0060198800c0ff210040
:1020c0008019880085a0a90095a0a90021e3a80097
:1020d000ceff07000000eb00b048880085a0a900f3
:1020e00095a0a90021e3a8000080fa0000000600e6
:1020f0000000fa000000eb000080fa00000006007b
:102100000a00fa00300798003e00900010007800a6
:10211000200798000000eb00100798000000eb007b
:10212000000f78002e00900090407800d0c2b300dd
:1021300080cf500005003a0010002000000f78000a
:102140002e0090000000e800200798002e0090006c
:102150009040780090c3b30080cf500015003e003f
:102160002e00900090407800f0c2b30080cf500065
:10217000100036001e0090006a00b90000017800cf
:102180002e009000104078008080fb0080702d00b1
:10219000104078000000fb0000805000000041006b
:1021a000100798002e0090000000e800200798001b
:1021b000e6ff37002e009000104078000004e00099
:1021c000030032002e0090000000e8002007980075
:1021d0003e009000ae009000010878001e00e00074
:1021e00003003a001e0090004007980003003700eb
:1021f0001e0090000000ea00400798004e0090008a
:102200000080fa00000006000c00fa003007980079
:10221000410798000000eb00000f78003e0090009e
:102220000000e0000a003a0080702d0010407800a5
:102230008000fb004e009000010878004e009000e6
:102240000080e800400798001e0fe80034003700c7
:1022500000712200200798002e0037003e009000f9
:102260002e019000110009000280d800100798008c
:102270000040eb00304f98001e0090000000e0008e
:102280000200320011c0b300314f98000041eb0052
:10229000224f98001e00e0000200320010c0b30080
:1022a000204f9800be4890002e49900002c0700058
:1022b0000004e000120032009e0090002e0090000a
:1022c0000088b900800078003e00900001005000b6
:1022d000300798009e00900080702d000080400024
:1022e000104078008000fb004e009000010878004c
:1022f0004e0090000080e800400798001e0fe800a4
:102300002e009000a2002000110009000280d800d9
:10231000200798002e0090000000e000cfff3a0058
:102320004e0090000080fa00000006001000fa0045
:1023300050079800610798000000eb001007980014
:102340005e0090000000e00006003d00100020004c
:10235000100798005e0090000000ea002007980037
:10236000020037005e009000200798000000eb009c
:10237000000f78001e009000e10f500006003a00a8
:10238000ee009000d0022000800878006e009000df
:102390000080e800600798002e0090000000e00038
:1023a0000a003a0080702d00104078008000fb0089
:1023b0006e009000010878006e0090000080e80038
:1023c000600798001e0fe8003400370000712200fb
:1023d000400798002e0037002e0090004e0190001c
:1023e000110009000280d800300798008040eb00ff
:1023f000714f98003e0090000000e00002003200a3
:1024000012c0b300724f98000040eb00604f98007c
:102410001e00e0000200320011c0b300614f9800be
:102420007e499000ee489000014071000004e000f9
:1024300012003200be0090004e0090000088b900eb
:10244000800078002e0090000100500020079800c6
:10245000be00900080702d00008040001040780089
:102460008000fb006e009000010878006e00900074
:102470000080e800600798001e0fe8004e00900002
:10248000a2002000110009000280d8004007980037
:102490004e0090000000e000cfff3a006e00900078
:1024a0000080fa00000006001400fa0050079800af
:1024b000610798000000eb00100798005e00900094
:1024c0000000e00006003d0010002000100798000a
:1024d0005e0090000000ea0020079800020037002c
:1024e0005e009000200798000000eb00000f7800cd
:1024f0001e009000e10f500007003a00ee0090002f
:10250000d0022000800878006e0090000080e80073
:102510006007980006003700ee009000b00220002f
:10252000800878006e0090000080e8006007980046
:102530000071220040079800460037002e009000ee
:102540004e019000110009000280d8003007980069
:102550008040eb00315798003e0090000000e00002
:102560000200320012c0b300325798000040eb0066
:10257000205798001e00e0000200320011c0b30096
:10258000215798003e519000ae50900001407100dc
:102590000080fb00000f98000001eb00720798001c
:1025a000ce009000f0702200808f500002003e00ac
:1025b00010002000700798008e0890007e019000a7
:1025c000028070000000e00012003200be009000a7
:1025d0004e0090000088b900800078002e00900026
:1025e0000100500020079800be00900080702d0070
:1025f00000804000104078008000fb006e009000da
:10260000010878006e0090000080e80060079800e4
:102610001e0fe800ce009000803e2000808f50000a
:1026200007003a00ee009000e002200080087800e9
:102630006e0090000080e800600798001e0fe80020
:102640004e009000a2002000110009000280d80076
:10265000400798004e0090000000e000b7ff3a00ed
:102660006e0090000080fa00000006001400fa00de
:1026700050079800610798000000eb0010079800d1
:102680005e0090000000e00006003d001000200009
:10269000100798005e0090000000ea0020079800f4
:1026a000020037005e009000200798000000eb0059
:1026b000000f78001e009000e10f500007003a0064
:1026c000ee009000d0022000800878006e0090009c
:1026d0000080e8006007980006003700ee009000d8
:1026e000b0022000800878006e0090000080e800b2
:1026f00060079800007122004007980045003700ed
:102700002e0090004e019000110009000280d800b8
:10271000300798008040eb00315798003e00900051
:102720000000e0000200320012c0b30032579800ef
:102730000040eb00205798001e00e000020032002d
:1027400011c0b300215798003e519000ae50900048
:10275000014071000080fb00000f98000001eb00b9
:1027600072079800ce00900030062000808f500045
:1027700002003e0010002000700798008e089000b4
:102780007e019000028070000000e0001200320024
:10279000be0090004e0090000088b90080007800d4
:1027a0002e0090000100500020079800be0090000d
:1027b00080702d0000804000104078008000fb00f9
:1027c0006e009000010878006e0090000080e80024
:1027d000600798001e0fe8004e009000ea0f5000be
:1027e00007003a00ee009000e00220008008780028
:1027f0006e0090000080e800600798001e0fe8005f
:102800004e009000a2002000110009000280d800b4
:10281000400798004e0090000000e000b8ff3a002a
:102820006e0090000080fa00000006000400fa002c
:10283000004f7800110798001e80fb004400de0066
:102840000080fb00ef00600080702d0000804000e1
:10285000104078008000fb001e0090000108780006
:102860001e0090000080e800100798001e80fb000a
:10287000ef00600080702d00008040001040780064
:102880008000fb001e009000010878001e009000f0
:102890000080e800100798001e0090000080fa00f9
:1028a000000006000800fa00200798002e009000a3
:1028b00010007800100798000040eb0010479800c7
:1028c0000040eb00004f78001e00900010407800a0
:1028d0008080fb0020712d00104078000000fb007c
:1028e000808f50000e0035001e00900010407800d0
:1028f0008040780020712d001040780000c050000a
:102900006a404000104798001e409000ef4f500072
:102910001b0036000000eb0030079800670037000e
:102920001e009000104078008080fb0080702d0019
:10293000104078000000fb00808f50000d00350033
:102940001e009000104078008040780080702d00bc
:102950001040780000c05000104798001e409000c2
:10296000e94f5000060036000000eb0030079800e9
:10297000520037000000eb00300798004f0037008e
:102980001e0090000000e80010079800ae009000c4
:102990001e009000800878001e0090001040780013
:1029a0008080fb0020712d00104078000000fb00ab
:1029b000808f5000170035001e00900010407800f6
:1029c0008040780020712d001040780000c0500039
:1029d0006a404000004f7800f0c0b3009e4f1000e6
:1029e000040036001e4090000080fb003007980075
:1029f000320037001e4090000080fb004400dd00e4
:102a0000804078001e40780000c0400010479800c9
:102a1000210037001e009000104078008080fb00ed
:102a200080702d00104078000000fb00808f500067
:102a3000160035001e00900010407800804078009d
:102a400080702d001040780000c05000004f7800ca
:102a500090c0b3009e4f1000040036001e4090004e
:102a60000080fb0030079800140037001e409000e3
:102a70000080fb004400dd00804078001e407800ac
:102a800000c0400010479800030037000000eb0032
:102a900030079800090037001e0090000000e80091
:102aa00010079800ae0090001e009000800878008b
:102ab0001e4090000080fb00300798003e00900010
:102ac0000080fa00000006000800fa0020079800c5
:102ad000310798000000eb00100798002e009000ce
:102ae000000f78000c0037003e0090001040780086
:102af0008000fb001e007800010878001e8fe800af
:102b00003e0090000000e800300798001e00900092
:102b10000000e800100798003e0090001040780088
:102b20000004e000040032009e009000f007200046
:102b3000808f5000ecff36001e0078000080fa0005
:102b4000000006000600fa00100798002107980010
:102b500010002000000f78000f0037001e009000ca
:102b6000904078002e0090001040780080cf5000f8
:102b7000030032000000eb00000f78000e00370069
:102b80001e0090000000e800100798002e00900042
:102b90000000e800200798001e0090001040780018
:102ba0000004e000040032002e0090001040780085
:102bb0000004e000e9ff3a001e0090001040780099
:102bc0000004e00006003a002e009000104078005b
:102bd0000004e000020032000000eb00000f78006b
:102be0001e0078000080fa00000006000600fa00cf
:102bf0002200f8002400f8002600f80010079800d2
:102c0000210798001e009000000040001007980067
:102c10001e009000000f78009e0278002e029000a7
:102c20001301c0000000cc00000f78001e007800e7
:102c30002600f9002400f9002200f9000080fa00c3
:102c4000000006000c00fa002007980031079800e9
:102c500042079800530798002e009000cf80de00b6
:102c6000008fbe003e009000cf80de001e1f1000cf
:102c70001e9718004e0090006103b9009e00780076
:102c800006007800000ab8001e0078000780b9002e
:102c900005017800000141001e00900000b0b9005d
:102ca0000001410082027800048fbe005e009000a7
:102cb0000000d100010020001e0f40005e97480078
:102cc0005e0090006101b8001e00be0015fb070009
:102cd000008fbe001e0078000080fa000000060091
:102ce0000000fa0007e2a90040062000201088003a
:102cf00007e2a80007a2a9000782a8000762a900ae
:102d00000742a9000722a9000702a90006e2a900bc
:102d100006c2a90006a2a8000682a9000662a900b0
:102d20000642a9000622a9000602a9002efc0700ff
:102d30000080fa00000006000400fa002047980016
:102d40000000eb00000f780055fc070006c2bf0032
:102d5000614060000004e000fcff3a002e4090005b
:102d60000080fb004600de00e240600000cab300c5
:102d700000c0400037fc070008c2bf00614060008f
:102d80000004e000fcff3a0009c2bf0001c8b30024
:102d9000014060000004e000fbff3a002e4090007c
:102da0008080fb00f00720000080600000004000f1
:102db00080407800e0cfb30000c0600025fc070031
:102dc00008c2bf00614060000004e000fcff3a0060
:102dd00009c2bf0001c8b300014060000004e00068
:102de000fbff3a002efc070006c2bf0061406000f6
:102df0000004e000fcff3a002e4090000080fb0041
:102e00004600de00e240600010cab30000c040008f
:102e100010fc070008c2bf00614060000004e00031
:102e2000fcff3a0009c2bf0001c8b30001406000c6
:102e30000004e000fbff3a00fefb07000080fb00ff
:102e40004800dd00000f7800e0fb070006c2bf006d
:102e5000704060000004e000fcff3a00f5fb070052
:102e60000080fb001e0f400008fc070006c2bf00e8
:102e7000704060000004e000fcff3a000afc07001c
:102e800006c2bf00644060000004e000fcff3a009e
:102e9000d5fb07001e0078000080fa000000060045
:102ea0000400fa00204798000000eb00000f7800b3
:102eb000cdfb0700100a200001002000242007009d
:102ec000f7fb070006c2bf00614060000004e0009d
:102ed000fcff3a008620a90020cdb300ddfb0700ef
:102ee00008c2bf00614060000004e000fcff3a003f
:102ef00009c2bf0001c8b300014060000004e00047
:102f0000fbff3a002e409000d2fb070008c2bf0032
:102f1000614060000004e000fcff3a0009c2bf000d
:102f200001c8b300014060000004e000fbff3a006c
:102f3000dbfb070006c2bf00614060000004e00048
:102f4000fcff3a0030cdb300c2fb070008c2bf004f
:102f5000614060000004e000fcff3a0009c2bf00cd
:102f600001c8b300014060000004e000fbff3a002c
:102f7000b0fb07000080fb004800dd00000f780078
:102f800092fb070006c2bf00704060000004e00032
:102f9000fcff3a00a7fb07000080fb001e0f40006b
:102fa000bafb070006c2bf00704060000004e000ea
:102fb000fcff3a00bcfb070006c2bf006440600093
:102fc0000004e000fcff3a00100a2000010020008d
:102fd000df1f070084fb07001e0078000080fa0056
:102fe000000006000400fa00004f78001107980066
:102ff000abfb070006c2bf00614060000004e000b8
:10300000fcff3a001e80fb004600de00e24060004c
:1030100000cab30000c040008efb070008c2bf001a
:10302000614060000004e000fcff3a0009c2bf00fc
:1030300001c8b300014060000004e000fbff3a005b
:103040009e80fb00f0072000008060000000400030
:1030500080407800e0cfb30000c060007dfb070037
:1030600008c2bf00614060000004e000fcff3a00bd
:1030700009c2bf0001c8b300014060000004e000c5
:10308000fbff3a001e0090004800de0071fb0700c5
:1030900008c2bf00614060000004e000fcff3a008d
:1030a00009c2bf0001c8b300014060000004e00095
:1030b000fbff3a001e00900066fb070008c2bf003d
:1030c000614060000004e000fcff3a0009c2bf005c
:1030d00001c8b300014060000004e000fbff3a00bb
:1030e00071fb070006c2bf00644060000004e000fe
:1030f000fcff3a0000c02e0041002000941f070092
:1031000039fb07000080fa00000006000600fa0004
:103110002047980031479800424798000000eb0094
:10312000000f78004e4090000004e00002003a00da
:1031300010c0b300404798002bfb070058fb070066
:1031400006c2bf00614060000004e000fcff3a00de
:103150008620a9002e4090003efb070008c2bf0059
:10316000614060000004e000fcff3a0086c0bf0040
:10317000624060000004e000fcff32008620a900ed
:1031800009c2bf0001c8b300014060000004e000b4
:10319000fbff3a003e4090002efb070008c2bf0034
:1031a000614060000004e000fcff3a0086c0bf0000
:1031b000624060000004e000fcff32008620a900ad
:1031c00009c2bf0001c8b300014060000004e00074
:1031d000fbff3a0030fb070006c2bf0064406000fe
:1031e0000004e000fcff3a00201420000100200051
:1031f000571f07002e4090000040e800204798002d
:103200002e40900013fb070008c2bf006140600021
:103210000004e000fcff3a0086c0bf00624060008e
:103220000004e000fcff32008620a900eafa070053
:103230000004e000fdff3a00fefa07000080fb00fa
:10324000000f78004e409000e24f50000b003a0013
:10325000defa070006c2bf00704060000004e00014
:10326000fcff3a00f3fa07000080fb00c800dd0015
:1032700000f02f00008060001e0f700003fb0700ad
:1032800009fb070006c2bf00644060000004e000c4
:10329000fcff3a00d4fa07001e0078000080fa0014
:1032a000000006000600fa00204798003147980009
:1032b000424798000000eb00000f7800cafa0700b0
:1032c000f7fa070006c2bf00614060000004e0009a
:1032d000fcff3a008620a9002e409000ddfa07008e
:1032e00008c2bf00614060000004e000fcff3a003b
:1032f00086c0bf00624060000004e000fcff3200b6
:103300008620a900010037001e0fe80009c2bf0097
:1033100001c8b300014060000004e0000300320077
:10332000300620009e0f1000f7ff34003e40900052
:10333000c8fa070008c2bf00614060000004e00056
:10334000fcff3a0086c0bf00624060000004e0005d
:10335000fcff32008620a900010037001e0fe800a4
:1033600009c2bf0001c8b300014060000004e000d2
:1033700003003200700c20009e0f1000f7ff340095
:103380004e409000b3fa070008c2bf0061406000e1
:103390000004e000fcff3a0086c0bf00624060000d
:1033a0000004e000fcff32008620a9000100370085
:1033b0001e0fe80009c2bf0001c8b3000140600051
:1033c0000004e00003003200b01220009e0f100045
:1033d000f7ff3400b4fa070006c2bf006440600083
:1033e0000004e000fcff3a007ffa07000080fa00ca
:1033f000000006000a00fa00404798005147980074
:10340000624798004307980010c0b3002047980017
:103410006e4090000004e000220032002e41900037
:10342000ce40900020cdb30038ff07001047980031
:103430006e4090008080fb00100020000100dd0045
:103440000001e9005e4090008080fb006e4090002b
:103450000080fb00008050000000e8000010dd004c
:10346000004f78001e4090001e40600010479800fa
:103470001e4090000081fb005e4090008080fb00b9
:103480006e4090000080fb00008050000000e800cb
:103490000090de00104798004e0090009e40900083
:1034a000014878002e4090000080fb000080fa0068
:1034b000000006000600fa002047980031479800f7
:1034c0002207980010c0b300004f78001e4178001a
:1034d000ae40900020cdb3000cff070010479800cd
:1034e0003e4090008080fb00100020000100dd00c5
:1034f000804078001e40900000c06000804078004e
:103500002e009000014878001e80fb000080fa0029
:10351000000006000600fa00204798003147980096
:1035200042479800534798004e4090000004e00046
:103530002e0032000040eb0010479800ae40900093
:1035400012c0b30020cdb300f0fe07001047980072
:103550004e4090008080fb00100020000100dd0044
:103560000001e9003e4090008080fb004e4090004a
:103570000080fb00008050000000e8000010dd002b
:10358000004f78005e4090000081fb003e409000bc
:103590008080fb004e4090000080fb0000805000c7
:1035a0000000e8000010dd00504798005e409000e9
:1035b0001e406000504798001e40780080c0ea001e
:1035c0001e40900000c06000104798009e40900090
:1035d0005e40900000c07000104798001e419000af
:1035e000ae40900020cdb3002eff07000080fa000f
:1035f000000006000600fa002047980031479800b6
:1036000042479800ae40900012c0b30020cdb300f6
:10361000befe0700004f78004e4090000004e0001e
:10362000090032003e4090008080fb001000200026
:103630000100dd00804078001e40780000c070006e
:1036400050479800080037003e4090008080fb0003
:10365000100020000100dd0080c0ea001e4078005c
:1036600000c06000504798005e409000004f780016
:103670001e417800ae40900020cdb30009ff070046
:103680000080fa00000006000400fa000040eb0091
:10369000004f780012c0b30051c7b30020cdb30073
:1036a0009afe0700004f780000c7b3009e4f10003d
:1036b00003003a00100020001007980002003700b5
:1036c0000000eb00100798001e0090000080fa0038
:1036d000000006000200fa000040eb00004f7800f6
:1036e00002c8b300b1c6b30020cdb300edfe0700a1
:1036f00000802800d1012000151e070012c0b30071
:10370000b1c6b30020cdb300e6fe070000c029001b
:10371000810120000e1e070012c0b300a1c1b3003a
:1037200020cdb300dffe070032c0b30091c1b3006b
:1037300020cdb300dbfe070002c1b300b1c1b3006e
:1037400020cdb300d7fe070082c1b300c1c1b300d2
:1037500020cdb300d3fe07000041eb0031c2b3001f
:1037600020cdb300cffe070012c0b30081c3b30069
:1037700020cdb300cbfe07000080fa000000060059
:103780000000fa00b0c3b300c5fd0700c07d88008b
:10379000d0c3b300c2fd0700e07d8800f0c3b300d2
:1037a000bffd0700007e880030c4b300bcfd0700e9
:1037b000d07d880050c4b300b9fd0700f07d8800bb
:1037c00070c4b300b6fd0700107e88000080fa00c8
:1037d000000006000000fa00c07d80000080fa00b2
:1037e000000006000000fa00e07d80000080fa0082
:1037f000000006000000fa00007e80000080fa0051
:10380000000006000000fa00d07d80000080fa0071
:10381000000006000000fa00f07d80000080fa0041
:10382000000006000000fa00107e80000080fa0010
:10383000000006000600fa00881f7800307980003a
:10384000e10f500010003a000040eb003afd070085
:103850001040880011408000f0702200808f5000de
:1038600003003600100020001040880003003700dd
:10387000104080000000e8001040880011408000e7
:103880000040eb00d7fd070010c0b3002afd070081
:103890002040880020408000e30f500003003e00dd
:1038a000204080000000e0000b003a002040800033
:1038b000e30f500003003600300020002040880055
:1038c00002003700100020002040880021408000c6
:1038d00010c0b300c3fd070020c0b30016fd0700f1
:1038e000304088003040800020079800ae009000f3
:1038f000ea8f50001a0032002e009000ea0f5000ac
:103900000a003e00ae009000e28f5000140032002a
:103910002e009000e50f500011003200ae00900024
:10392000e18f50000e0032000b0037002003200012
:10393000ae009000808f5000090032004006200049
:10394000ae009000808f5000050032002e009000e5
:10395000f40f500002003200400120003040880087
:1039600030c0b300f4fc07004040880040408000b5
:10397000e60f500002003600600020004040880042
:10398000404080000000e00003003a0040062000b4
:10399000d05b88000e00370040408000e20f5000ee
:1039a00003003e0020032000d05b880008003700a1
:1039b00040408000e30f500003003e004001200023
:1039c000d05b880002003700a0002000d05b880098
:1039d00031408000d05b8000808f500002003600b4
:1039e000d05b8000304088003140800020c0b300b0
:1039f0007cfd07004140800030c0b30079fd070026
:103a00000000eb00100798009f0037001e00900098
:103a10006300b900000f78001e0490001e007800bb
:103a200064404000c4fc0700000178000800440026
:103a3000e80040002080200000804000020878005c
:103a40001e00900000004000e800400020802000a0
:103a50000080400010007800e30f50001000360096
:103a60001e00900000004000e80040002080200080
:103a7000808040000000eb00800878001e0090006d
:103a800000004000e800400020802000008040004e
:103a9000900078001e0078006440400051fd07004f
:103aa0001e0490001e00780065404000a2fc070044
:103ab0000001780008004400ee0040002080200053
:103ac00000804000020878001e00900000004000c6
:103ad000ee00400020802000008040009000780030
:103ae000803e2000808f500008003e001e009000a5
:103af00000004000ee0040002080200000804000d8
:103b0000100078000000e00020003a001e00900045
:103b100000004000ee0040002080200000804000b7
:103b2000100078000000e00008003a001e0090003d
:103b300000004000ee004000208020008080400017
:103b40001000200080087800070037001e00900059
:103b500000004000ee0040002080200080804000f7
:103b6000803e2000800878001e0090000000400089
:103b7000ee0040002080200000804000900078008f
:103b80001e0078006540400016fd07001e049000ee
:103b90001e0078006640400067fc070000017800c6
:103ba00008004400f4004000208020000080400015
:103bb000020878001e00900000004000f400400061
:103bc000208020000080400090007800803e20008f
:103bd000808f500008003e001e0090000000400052
:103be000f400400020802000008040001000780099
:103bf0000000e00021003a001e009000000040009c
:103c0000f4004000208020000080400090007800f8
:103c1000803e2000808f5000080036001e0090007b
:103c200000004000f4004000208020008080400020
:103c3000803e200080087800070037001e009000ba
:103c400000004000f4004000208020008080400000
:103c500010002000800878001e0090000000400046
:103c6000f400400020802000008040009000780098
:103c70001e00780066404000dafc07001e0090003d
:103c80000000e800100798001e009000e20f5000ae
:103c90005eff36000000eb0010079800250037009b
:103ca0001e0490001e0090007040400022fc07009f
:103cb0000001780008004400fa0040002080200045
:103cc00000804000020878001e00900000004000c4
:103cd000fa004000208020000080400010007800a2
:103ce000e20f5000100036001e009000000040005f
:103cf000fa00400020802000808040000000eb009f
:103d0000800878001e00900000004000fa0040008b
:103d10002080200000804000900078001e0090006d
:103d200070404000affc07001e0090000000e8005b
:103d3000100798001e009000e90f5000d8ff3600d1
:103d4000f0c1b300fcfb0700804188008141800086
:103d5000c0032000808f500005003600c003200003
:103d60008041880081418000f0c1b3009dfc0700c4
:103d70004f0478000080fa00000006000200fa00fc
:103d8000881f78000000eb00000f78005b00370010
:103d90001e0478001e0078000042b000e6fb070019
:103da000000178008800440020832000008040004b
:103db000020878001e0478001e007800a042b000bf
:103dc000ddfb07000001780008004400f40040001b
:103dd0002083200000804000020878001e04780044
:103de0001e0078004043b000d3fb070000017800bc
:103df00008004400810220008080400020832000d1
:103e000000804000020878001e007800800040001a
:103e100020832000008040009000780000202000d7
:103e2000808f5000060034001e00780080004000a3
:103e3000208320008080400000202000800878003f
:103e40001e00780080004000208320000080400099
:103e50009000780000e02f00808f500006003d00a9
:103e60001e007800800040002083200080804000f9
:103e700000e02f00800878001e007800000040005d
:103e8000f4004000208320000080400010007800f3
:103e90000000e00007003a001e007800000040002b
:103ea000f4004000208320008080400010002000ab
:103eb000800878001e007800000040008102200089
:103ec00080804000208320000080400010007800a7
:103ed0000000e00008003a001e00780000004000ea
:103ee00081022000808040002083200080804000ec
:103ef00010002000800878001e0fe80090002000cd
:103f00009e0f1000a2ff3400e0c8b3008afb070038
:103f100050488800f0c8b30087fb0700604888005d
:103f200000c9b30084fb07007048880010c9b300c3
:103f300081fb07008048880020c9b3007efb070092
:103f40009048880030c9b3007bfb0700a048880078
:103f50000000eb00000f7800870037001e04780097
:103f60001e0078000044b00073fb070000017800d9
:103f700088004400e08620000080400002087800ad
:103f80001e0478001e007800d044b0006afb0700d1
:103f90000001780008004400fa004000e08620009c
:103fa00000804000020878001e0478001e0078009f
:103fb000a045b00060fb0700000178000800440045
:103fc0004103200080804000e08620000080400007
:103fd000020878001e0478001e0078007046b000c9
:103fe00055fb07000001780008004400e1042000b0
:103ff00080804000e08620000080400002087800b9
:104000001e0478001e0078004047b0004afb0700fd
:1040100000017800080044008106200080804000f4
:10402000e086200000804000020878001e0478002e
:104030001e0078008040780010c8b30000c0400027
:104040003dfb070000017800080044002108200023
:1040500080804000e0862000008040000208780058
:104060001e00780000004000fa004000e0862000ba
:1040700000804000100078000000e00011003a00cd
:104080001e00780000004000fa004000e08620009a
:104090008080400010002000800878001e0078001a
:1040a00000004000fa004000e08620000080400050
:1040b00010007800800078001e007800d044b00026
:1040c000c8fb07001e0078000000400041032000ec
:1040d00080804000e08620000080400010007800d2
:1040e0000000e00012003a001e00780000004000ce
:1040f0004103200080804000e08620008080400056
:1041000010002000800878001e00780000004000a9
:104110004103200080804000e086200000804000b5
:10412000900078001e007800a045b000adfb0700ad
:104130001e00780000004000e10420008080400064
:10414000e08620000080400010007800e20f500060
:10415000080036001e00780000004000e104200046
:1041600080804000e0862000808040002000200009
:10417000800878001e0fe800c00020009e0f10008d
:1041800076ff340000cab300ebfa0700104a88003b
:10419000104a8000f00f500005003600000120009a
:1041a000104a8800114a800000cab3008dfb070046
:1041b00020ccb300e0fa0700204c8800204c80009f
:1041c000f00f50000500360000012000204c880050
:1041d000214c800020ccb30082fb07000000eb00e4
:1041e000000f78005f0037001e0478001e00780082
:1041f0008040780020cab30000c04000cefa07001b
:1042000000017800880044004094200000804000b5
:10421000020878001e0078008000400040942000d2
:10422000008040009000780000772100808f5000cf
:10423000110036001e0078008000400040942000ed
:104240008080400000772100800878001e00780000
:104250008000400040942000008040001001780061
:104260001e0078008040780020cab30000c04000e3
:10427000820078005bfb07001e0478001e007800b7
:104280008040780020cbb30000c04000aafa0700ad
:104290000001780088004400409620000080400023
:1042a000020878001e0478001e0078008040780024
:1042b00040ccb30000c040009ffa07000001780026
:1042c00088004400609820000080400002087800c8
:1042d0001e007800800040006098200000804000b0
:1042e0009000780000772100808f50001100360088
:1042f0001e00780080004000609820008080400010
:1043000000772100800878001e00780080004000bf
:104310006098200000804000100178001e007800a6
:104320008040780040ccb30000c04000820078009c
:104330002cfb07001e0478001e00780080407800e7
:1043400040cdb30000c040007bfa070000017800b8
:1043500088004400609a2000008040000208780035
:104360001e0fe800f00020009e0f10009eff34009a
:104370004f0478000080fa00000006000200fa00f6
:104380000000eb00000f7800830037001e0078006b
:1043900080004000e0862000808040000000eb00ac
:1043a00080087800900020009e0f100008003c005c
:1043b0001e00780000004000fa004000e086200067
:1043c00080804000500020008008780007003700ff
:1043d0001e00780000004000fa004000e086200047
:1043e00080804000100020008008780090002000ad
:1043f0009e0f100009003c001e00780000004000e5
:104400004103200080804000e08620008080400042
:104410005000200080087800080037001e00780057
:10442000000040004103200080804000e086200022
:104430008080400010002000800878001e00780076
:1044400000004000e104200080804000e086200061
:10445000808040000000eb00800878001e0078009b
:10446000000040008106200080804000e08620009f
:1044700080804000f0ff2700800878001e00780050
:10448000000040002108200080804000e0862000dd
:10449000808040000000eb00800878001e0078005b
:1044a00080004000e086200000804000100078007e
:1044b000800078001e0078000044b000c9fa0700b0
:1044c0001e00780000004000fa004000e086200056
:1044d0000080400010007800800078001e00780006
:1044e000d044b000bffa07001e0078000000400072
:1044f0004103200080804000e086200000804000d2
:10450000900078001e007800a045b000b5fa0700c2
:104510001e00780000004000e10420008080400080
:10452000e086200000804000900078001e007800a7
:104530007046b000abfa07001e0078000000400093
:104540008106200080804000e0862000008040003e
:10455000900078001e0078004047b000a1fa0700e4
:104560001e007800000040002108200080804000ec
:10457000e086200000804000100178001e007800d6
:104580008040780010c8b30000c04000820078006e
:1045900094fa07001e0fe800c00020009e0f1000d4
:1045a0007aff34000080fa00000006000200fa00e2
:1045b0000000eb00000f78002b0037001e00780091
:1045c000c200dd0080f92000008140006000b800da
:1045d0000089be001e007800c200dd0040fa200005
:1045e000008140006000b8000089be001e00780015
:1045f0008000400040f82000808040000000eb0078
:10460000800878001e0078008000400000fb200039
:10461000808040000000eb00800878001e007800d9
:10462000c200dd0080f02000008140006000b80082
:104630000089be001e007800c200dd0040f12000ad
:10464000008140006000b8000089be001e007800b4
:104650008000400020f92000808040000000eb0036
:10466000800878001e0fe800200020009e0f100038
:10467000d2ff34000000eb00000f78000d0037007f
:104680001e00780080004000a09120008080400043
:104690000000eb00800878001e00780080004000d9
:1046a000e0922000808040000000eb00800878004d
:1046b0001e0fe800900020009e0f1000f0ff340055
:1046c0000000eb00807c88000080fa0000000600fb
:1046d0000a00fa000000eb0030079800f4013700f0
:1046e0003e0090008000400040f820000080400024
:1046f00010007800e10f50001a003a003e009000d0
:1047000000004000e80040002080200000804000c1
:1047100010007800e20f50000b003a003e029000bb
:10472000c220dd0080f02000008040001000be00ac
:1047300061014000e0814800c220dd0080f02000df
:10474000008040000288be003e00900080004000d3
:1047500040f82000808040000000eb0080087800d6
:10476000d00137003e0090008000400040f820005b
:104770000080400010007800e10f5000c9013600b1
:104780003e00900000004000e80040002080200033
:104790000080400010007800400798004e00900014
:1047a000e10f5000d4003200ce009000e18f5000a5
:1047b000040039004e019000e20f51009b013200cd
:1047c000b80137003e009000c200dd0040fa200032
:1047d000008040001001be00028fbe003e0090002d
:1047e000c200dd0040fa2000008140006000b800f7
:1047f0000089be003e0090008000400040f820008c
:10480000808040000000eb00800878001e00be00a1
:10481000e00f5000e08f5800aa003200f03e200068
:1048200001002000be0f1000ae8f180003003e00f4
:10483000003f200001002000008fbe001e01be00ce
:1048400000d02600d11c200045f40700008fbe00d8
:104850009e017800230798003e0090006a00400007
:10486000000040004103200080804000e0862000de
:1048700000804000900178003e0090006a004000f7
:1048800000004000fa004000e08620000080400068
:10489000100178003e0090006a0040008000400057
:1048a000e086200000804000900078002e009000fc
:1048b000e4f80700200798002e0190003e009000c9
:1048c0006a00400000004000810620008080400017
:1048d000e08620000080400010007800800f51002a
:1048e000090034003e0090006a00400000004000d3
:1048f0008106200080804000e0862000008040008b
:1049000090007800210798002e0190003e00900052
:104910006a00400000004000210820008080400024
:10492000e08620000080400010007800800f5100d9
:1049300009003d003e0090006a0040000000400079
:104940002108200080804000e08620000080400098
:1049500010017800220798003e0090006a00400095
:1049600000004000e104200080804000e08620003c
:104970000080400010007800e10f500011003a0064
:104980003e0290003e009000c200dd0080f020005a
:10499000008040001001be002e00900001002000a9
:1049a00002004000838048008101d1000081d300d3
:1049b000c220dd0080f02000008040000288be00a0
:1049c000380137003e0090006a00400000004000bf
:1049d000e104200080804000e0862000008040004c
:1049e00010007800e20f500028003a003e009000ce
:1049f000c200dd0040f12000008040001000be0039
:104a0000e00f5000e08f5800110032003e0290008d
:104a10003e009000c200dd0040f120000080400018
:104a20001001be002e009000010020000200400096
:104a3000838048008101d1000081d300c220dd00c5
:104a400080f02000008040000288be000700370090
:104a5000be0090002e0090006101b800c208dd0089
:104a600080f02000008040000288be00be00900060
:104a70002e0090006101b800c208dd0040f1200066
:104a8000008040000288be0006013700be00900092
:104a90002e0090006101b800c208dd0080f0200007
:104aa000008040000288be003e009000c200dd0091
:104ab00040f12000008140006000b8000089be0085
:104ac000f80037003e009000c200dd0080f02000ba
:104ad000008140006000b8000089be003e009000e8
:104ae000c200dd0040f12000008140006000b800fd
:104af0000089be00eb0037003e009000c200dd00e0
:104b000040fa2000008040001001be00028fbe006d
:104b10003e009000c200dd0040fa2000008140000d
:104b20006000b8000089be003e0090008000400098
:104b300040f82000808040000000eb0080087800f2
:104b40001e00be00e00f5000e08f5800aa003200a7
:104b5000700a200001002000be0f1000ae8f180068
:104b600003003e00800a200001002000008fbe00ec
:104b70001e01be0000782e00c104200078f307005b
:104b8000008fbe009e017800230798003e00900031
:104b90006a00400000004000410320008080400087
:104ba000e086200000804000900178003e009000e8
:104bb0006a00400000004000fa004000e08620004b
:104bc00000804000100178003e0090006a00400024
:104bd00080004000e08620000080400090007800c7
:104be0002e00900017f80700200798002e01900073
:104bf0003e0090006a004000000040008106200056
:104c000080804000e0862000008040001000780096
:104c1000800f5100090034003e0090006a004000ff
:104c2000000040008106200080804000e0862000d7
:104c30000080400090007800210798002e0190002d
:104c40003e0090006a004000000040002108200063
:104c500080804000e0862000008040001000780046
:104c6000800f510009003d003e0090006a004000a6
:104c7000000040002108200080804000e0862000e5
:104c80000080400010017800220798003e0090004c
:104c90006a00400000004000e104200080804000e5
:104ca000e08620000080400010007800e10f5000f6
:104cb00011003a003e0290003e009000c200dd006c
:104cc00080f02000008040001001be002e00900007
:104cd0000100200002004000838048008101d100d3
:104ce0000081d300c220dd0080f020000080400061
:104cf0000288be006b0037003e0090006a00400052
:104d000000004000e104200080804000e086200098
:104d10000080400010007800e20f500028003a00a8
:104d20003e009000c200dd0040f120000080400005
:104d30001000be00e00f5000e08f5800110032005c
:104d40003e0290003e009000c200dd0040f12000d5
:104d5000008040001001be002e00900001002000e5
:104d600002004000838048008101d1000081d3000f
:104d7000c220dd0080f02000008040000288be00dc
:104d800007003700be0090002e0090006101b800bf
:104d9000c208dd0080f02000008040000288be00d4
:104da000be0090002e0090006101b800c208dd0036
:104db00040f12000008040000288be00390037002a
:104dc000be0090002e0090006101b800c208dd0016
:104dd00080f02000008040000288be003e0090006d
:104de000c200dd0040f12000008140006000b800fa
:104df0000089be002b0037003e009000c200dd009d
:104e000080f02000008140006000b8000089be00f2
:104e10003e009000c200dd0040f120000081400013
:104e20006000b8000089be001e0037003e00900000
:104e30008000400040f82000008040001000780012
:104e4000e30f50000b0032003e029000c220dd0054
:104e500080f02000008040001000be006101400092
:104e6000e0814800c220dd0080f02000008040008a
:104e70000288be003e009000c200dd0040fa200023
:104e8000008140006000b8000089be003e00900034
:104e90008000400040f82000808040000000eb00cf
:104ea000800878003e0090000000e800300798007d
:104eb0003e009000e20f500009fe36005040800096
:104ec000e30f500008003a00d2c2bf000080fb0090
:104ed0004600de00614060000080fb000100200011
:104ee000407888005178880060408000e30f5000cf
:104ef00007003a00d2c2bf000080fb004700de007e
:104f00000080fb0001002000607888007178880034
:104f100070408000e30f500008003a00d2c2bf008a
:104f20000080fb004400de00614060000080fb0068
:104f30000100200080788800917888000080fa00c5
:104f4000000006000200fa00b05b8000e10f500094
:104f500025043a00011a2d0060a02000f9f6070090
:104f6000e10f50000b003a0090fd070000002c00fc
:104f700091182000f617070030002000107f8800ed
:104f800010002000c05b88000000eb00c0488800d3
:104f900011043700511a2d0060a02000e9f6070027
:104fa000e10f500005003a0010002000107f88003b
:104fb0000000eb00c048880007043700a11a2d004c
:104fc00060a02000dff60700e10f5000020432006d
:104fd000011b2d0060a02000daf60700e10f500051
:104fe000fd033200311b2d0060a02000d5f6070024
:104ff000e10f500007003a0020002000107f8800d9
:1050000020002000005c880010002000c0488800bc
:10501000f1033700711b2d0060a02000c9f60700c6
:10502000e10f500005003a0020002000107f8800aa
:10503000f0022000005c8800e7033700011c2d000f
:1050400060a02000bff60700e10f500008003a0002
:1050500030002000107f880010002000c05b880016
:105060000000eb00c048880050fd0700da0337005d
:10507000411c2d0060a02000b2f60700e10f500097
:1050800009003a0020002000107f8800e002200084
:10509000005c880010002000c05b88000000eb006e
:1050a000c0488800cc033700811c2d0060a0200080
:1050b000a4f60700e10f500005003a002000200090
:1050c000107f880000032000005c8800c2033700c6
:1050d000b11c2d0060a020009af60700e10f5000df
:1050e00005003a0020002000107f880030002000da
:1050f000005c8800b8033700011d2d0060a020006f
:1051000090f60700e10f500014003a004000200024
:10511000005c88000000eb00e04f8800c0a0200089
:105120009059880020b32000f5f30700e04f880075
:10513000e04f80000000e00002003a0020408000c4
:10514000e04f8800e04f8000e30f5000a2033600dc
:1051500030002000e04f88009f033700711d2d00b4
:1051600060a0200077f60700e10f500034003a00fd
:1051700050002000005c88000000eb00e04f880039
:10518000c0a020009059880020b32000dcf3070065
:10519000e04f8800e04f8000000f78009e0078000c
:1051a000e58f50008c0332001e007800e50f5000a0
:1051b0000a003e009e007800e18f50008603320016
:1051c0001e007800e10f5000170039009e007800a3
:1051d000e28f500080033200160037001e00780076
:1051e000f40f50007c0332009e007800f48f5000d2
:1051f00004003e001e007800ea0f500076033200e3
:105200000c003700200320009e007800808f5000a3
:1052100071033200400620009e007800808f50000d
:105220006d0332000300370030408000e04f8800fb
:105230006903370040012000e04f88006603370013
:10524000e11d2d0060a020003ef60700e10f500098
:1052500014003a0060002000005c88000000eb00b1
:10526000e04f880081a020009140780000c3b30087
:1052700080cf50000500340008cabf008000fb004a
:10528000f0fc2f0000804000e04f8800e04f8000dd
:10529000e90f50005003360090002000e04f8800d6
:1052a0004d033700111e2d0060a0200025f60700d9
:1052b000e10f500014003a0070002000005c8800ec
:1052c0000000eb00e04f880081a0200091407800b2
:1052d00000c3b30080cf50000500340008cabf00ef
:1052e0008000fb00f0fc2f0000804000e04f8800b1
:1052f000e04f8000e90f5000370336009000200097
:10530000e04f880034033700411e2d0060a02000cc
:105310000cf60700e10f500014003a008000200056
:10532000005c88000000eb00e04f880081a02000b6
:105330009140780000c3b30080cf500005003400d6
:1053400008cabf008000fb00f0fc2f000080400076
:10535000e04f8800e04f8000e20f50001e0336004f
:1053600020002000e04f88001b033700711e2d0035
:1053700060a02000f3f50700e10f500014003a0090
:10538000a0002000005c88000000eb00e04f8800d7
:1053900080a020009059880020b3200058f3070017
:1053a000e04f8800e04f80000000e00002003a007b
:1053b00010002000e04f8800e04f8000ea0f50000e
:1053c00005033600a0002000e04f880002033700ec
:1053d000a11e2d0060a02000daf50700e10f5000ab
:1053e00014003a00c0002000005c88000000eb00c0
:1053f000e04f880080a020009059880020b3200052
:105400003ff30700e04f8800e04f80000000e0001d
:1054100002003a0010002000e04f8800e04f8000ba
:10542000ed0f5000ec023600d0002000e04f880065
:10543000e9023700d11e2d0060a02000c1f5070051
:10544000e10f500014003a0020012000005c8800a9
:105450000000eb00e04f880090a0200090598800e9
:1054600020b3200026f30700e04f8800e04f8000c3
:105470000000e00002003a0010002000e04f880029
:10548000e04f8000ed0f5000d3023600d000200026
:10549000e04f8800d0023700111f2d0060a02000cf
:1054a000a8f50700e10f500019003a006001200044
:1054b000005c88000000eb00e04f88000000eb007b
:1054c000f04f880090a020009059880020b3200061
:1054d0000bf30700e04f8800e04f80000000e00081
:1054e00002003a0010002000e04f8800e04f8000ea
:1054f000ed0f500002003600d0002000e04f880081
:1055000020b32000fef20700f04f8800b2023700ff
:10551000511f2d0060a020008af50700e10f500008
:1055200014003a0030012000005c88000000eb000d
:10553000e04f880090a020009059880020b3200000
:10554000eff20700e04f8800e04f80000000e0002d
:1055500002003a0010002000e04f8800e04f800079
:10556000ed0f50009c023600d0002000e04f880074
:1055700099023700911f2d0060a0200071f50700ef
:10558000e10f50001e003a0070012000005c88000e
:105590000000eb00e04f88000000eb00f04f8800b7
:1055a00090a020009059880020b32000d4f207007a
:1055b000e04f8800e04f80000000e00002003a0069
:1055c00010002000e04f8800e04f8000ed0f5000f9
:1055d00002003600d0002000e04f880020b32000f9
:1055e000c7f20700f04f8800f04f80000000e00095
:1055f00079023a0010002000f04f88007602370050
:10560000d11f2d0060a020004ef50700e10f5000d3
:1056100014003a0040012000005c88000000eb000c
:10562000e04f880090a020009059880020b320000f
:10563000b3f20700e04f8800e04f80000000e00078
:1056400002003a0010002000e04f8800e04f800088
:10565000ed0f500060023600d0002000e04f8800bf
:105660005d02370011202d0060a0200035f50700f5
:10567000e10f50001e003a0080012000005c88000d
:105680000000eb00e04f88000000eb00f04f8800c6
:1056900090a020009059880020b3200098f20700c5
:1056a000e04f8800e04f80000000e00002003a0078
:1056b00010002000e04f8800e04f8000ed0f500008
:1056c00002003600d0002000e04f880020b3200008
:1056d0008bf20700f04f8800f04f80000000e000e0
:1056e0003d023a0010002000f04f88003a023700d7
:1056f00051202d0060a0200012f50700e10f50009e
:1057000014003a0050012000005c88000000eb000b
:10571000e04f880090a020009059880020b320001e
:1057200077f20700e04f8800e04f80000000e000c3
:1057300002003a0010002000e04f8800e04f800097
:10574000ed0f500024023600d0002000e04f88000a
:105750002102370091202d0060a02000f9f40700fd
:10576000e10f500027003a0090012000005c880003
:105770000000eb00e04f88000000eb00f04f8800d5
:1057800090a020009059880020b320005cf2070010
:10579000e04f8800e04f80000000e00002003a0087
:1057a00010002000e04f8800e04f8000ed0f500017
:1057b00002003600d0002000e04f880020b3200017
:1057c0004ff20700f04f8800e04f8000ea0f5000d2
:1057d00006003600f04f8000e20f5000fe01360058
:1057e00020002000f04f8800fb013700f04f8000c0
:1057f000e20f5000f801360020002000f04f880032
:10580000f5013700d1202d0060a02000cdf4070065
:10581000e10f500016003a0010022000005c8800e2
:105820000000eb00e04f88000000eb00f04f880024
:1058300090a020009059880020b3200030f207008b
:10584000e04f8800e04f80000000e00002003a00d6
:1058500010002000e04f8800e04f8000ea0f500069
:10586000dd013600a0002000e04f8800da0137009b
:1058700011212d0060a02000b2f40700e10f5000bc
:105880001e003a0020022000005c88000000eb00af
:10589000e04f88000000eb00f04f880090a020004f
:1058a0009059880020b3200015f20700e04f8800cf
:1058b000e04f80000000e00002003a0010002000ed
:1058c000e04f8800e04f8000ea0f500002003600f1
:1058d000a0002000e04f880020b3200008f207005d
:1058e000f04f8800f04f8000e20f5000ba01360000
:1058f00020002000f04f8800b701370051212d0013
:1059000060a020008ff40700e10f500016003a005d
:1059100030022000005c88000000eb00e04f8800af
:105920000000eb00f04f880090a020009059880004
:1059300020b32000f2f10700e04f8800e04f800024
:105940000000e00002003a0010002000e04f880054
:10595000e04f8000e30f50009f0136003000200030
:10596000e04f88009c01370091212d0060a02000ad
:1059700074f40700e10f50001e003a0040022000be
:10598000005c88000000eb00e04f88000000eb00a6
:10599000f04f880090a020009059880020b320008c
:1059a000d7f10700e04f8800e04f80000000e000e2
:1059b00002003a0010002000e04f8800e04f800015
:1059c000e30f50000200360030002000e04f880056
:1059d00020b32000caf10700f04f8800f04f80008c
:1059e000e30f50007c01360030002000f04f8800ab
:1059f00079013700d1212d0060a0200051f407006b
:105a0000e10f500016003a0050022000005c8800b0
:105a10000000eb00e04f88000000eb00f04f880032
:105a200090a020009059880020b32000b4f1070016
:105a3000e04f8800e04f80000000e00002003a00e4
:105a400010002000e04f8800e04f8000e30f50007e
:105a50006101360030002000e04f88005e01370011
:105a600011222d0060a0200036f40700e10f500045
:105a700024003a0060022000005c88000000eb0077
:105a8000e04f88000000eb00f04f880090a020005d
:105a90009059880020b3200099f10700e04f88005a
:105aa000e04f80000000e00002003a0010002000fb
:105ab000e04f8800e04f8000e30f50000200360006
:105ac00030002000e04f880020b320008cf1070058
:105ad000f04f8800f14f8000803e2000808f500002
:105ae00002003600803e2000f04f8800f04f80001a
:105af0000000e00038013a0010002000f04f88005c
:105b00003501370051222d0060a020000df4070060
:105b1000e10f500016003a0070022000005c88007f
:105b20000000eb00e04f88000000eb00f04f880021
:105b300090a020009059880020b3200070f1070049
:105b4000e04f8800e04f80000000e00002003a00d3
:105b500010002000e04f8800e04f8000e30f50006d
:105b60001d01360030002000e04f88001a01370088
:105b700091222d0060a02000f2f30700e10f5000f9
:105b800024003a0080022000005c88000000eb0046
:105b9000e04f88000000eb00f04f880090a020004c
:105ba0009059880020b3200055f10700e04f88008d
:105bb000e04f80000000e00002003a0010002000ea
:105bc000e04f8800e04f8000e30f500002003600f5
:105bd00030002000e04f880020b3200048f107008b
:105be000f04f8800f04f80000000e00002003a0013
:105bf00010002000f04f8800f14f8000803e200010
:105c0000808f5000f4003600803e2000f04f880066
:105c1000f1003700d1222d0060a02000c9f3070059
:105c2000e10f500005003a00e0002000005c880011
:105c30000000eb00e04f8800e700370041232d0013
:105c400060a02000bff30700e10f500005003a00fc
:105c5000a0012000005c88000000eb00e04f8800fd
:105c6000dd00370091232d0060a02000b5f3070070
:105c7000e10f50000e003a00b0012000005c8800e7
:105c8000a0a020009059880020b320001cf107003c
:105c9000e04f8800e14f8000c0032000808f50005b
:105ca000cd003600c0032000e04f8800ca00370056
:105cb000e1232d0060a02000a2f30700e10f5000b7
:105cc00010003a0090022000005c88000000eb0009
:105cd000e04f880080a020009059880020b3200069
:105ce00007f10700e04f8800e14f8000f00f20002f
:105cf000808f5000b8003600f00f2000e04f880081
:105d0000b500370011242d0060a020008df307009e
:105d1000e10f500015003a00a0022000005c88004e
:105d20000000eb00e04f88000000eb00f04f88001f
:105d300080a020009059880020b32000f0f00700d8
:105d4000e04f8800e14f8000f00f2000808f50006e
:105d500002003600f00f2000e04f880020b3200042
:105d6000e7f00700f04f88009b00370041242d002a
:105d700060a0200073f30700e10f500005003a0017
:105d8000b0022000005c88000000eb00e04f8800bb
:105d900091003700b1242d0060a0200069f30700b6
:105da000e10f500007003a00c0022000005c8800ac
:105db000a0a02000905988000000eb00e04f880070
:105dc0008500370001252d0060a020005df307004d
:105dd000e10f500005003a0010032000005c88002d
:105de0000000eb00e04f88007b00370021252d00ec
:105df00060a0200053f30700e10f500014003a00a8
:105e0000f0002000005c88000000eb00e04f8800fc
:105e100090a020009059880020b32000b8f007001f
:105e2000e04f8800e04f80000000e00002003a00f0
:105e300010002000e04f8800e04f8000e20f50008b
:105e40006500360020002000e04f88006200370027
:105e500061252d0060a020003af30700e10f5000fb
:105e600023003a0000012000005c88000000eb00e5
:105e7000e04f88000000eb00f04f880090a0200069
:105e80009059880020b320009df00700e04f880063
:105e9000e04f80000000e00002003a001000200007
:105ea000e04f8800e04f8000e20f50000200360013
:105eb00020002000e04f880020b3200090f0070071
:105ec000f04f8800f04f8000e10f500002003e00cc
:105ed00020002000f04f8800f04f8000f00f5000ad
:105ee0003d00360000012000f04f88003a003700e6
:105ef000a1252d0060a0200012f30700e10f500043
:105f000033003a0010012000005c88000000eb0024
:105f1000e04f88000000eb00f04f88000000eb002d
:105f2000005088000000eb001050880090a0200076
:105f30009059880020b3200071f00700e04f8800de
:105f4000e04f80000000e00002003a001000200056
:105f5000e04f8800e04f8000e20f50000200360062
:105f600020002000e04f880020b3200064f00700ec
:105f7000f04f8800f04f80000000e00002003a007f
:105f800010002000f04f8800f04f8000f00f50000c
:105f90000200360000012000f04f880020b32000ee
:105fa00057f0070000508800015080000077210062
:105fb000808f5000020036000077210000508800da
:105fc00020b320004ef00700105088000200370078
:105fd00010002000005c88000000eb00b05b88002f
:105fe0000000eb00a05b88000080fa0000000600c3
:105ff0000800fa00881f7800b04880000000e00028
:10600000870132000000eb00300798007d01370067
:10601000b0488000e10f50000b003a003e009000b5
:1060200080004000a0182d00008040001000780083
:106030008000400000312200008040009000780085
:10604000210798000a0037003e00900080004000c1
:10605000a0182d0000804000100078008000400053
:10606000002d220000804000900078002107980059
:106070002e0090000000e000150032003e0090006d
:10608000000040008102200080804000208320002a
:1060900000804000900178003e0090000000400029
:1060a000f4004000208320000080400010017800b0
:1060b0003e009000800040002083200000804000cf
:1060c000900078002e009000def207002007980074
:1060d0002e0090000000e00002003d000000eb00f8
:1060e000200798003e00900000004000fa004000a9
:1060f0002080200000804000100078000000e000b8
:1061000088003a003e00900000004000410320005b
:1061100080804000e08620000080400090017800f0
:106120003e00900000004000fa004000e0862000a1
:1061300000804000100178003e0090008000400088
:10614000e086200000804000900078002e00900043
:10615000bcf20700200798002e0190003e0090003e
:10616000000040008106200080804000e086200082
:106170000080400010007800800f510008003400bb
:106180003e0090000000400081062000808040001a
:10619000e0862000008040009000780021079800f1
:1061a0002e0190003e0090000000400021082000d9
:1061b00080804000e08620000080400010007800d1
:1061c000800f510008003d003e009000000040009c
:1061d0002108200080804000e086200000804000f0
:1061e00090007800210798003e00900000004000d9
:1061f000e104200080804000e08620000080400014
:1062000010007800e10f50000e003a00be0190002f
:106210003e00900080004000a091200000804000df
:10622000900078002e009000008040000001d10016
:1062300083804100a0912000008040000208780087
:10624000ed0037003e00900000004000e104200017
:1062500080804000e0862000008040001000780030
:10626000e20f500022003a003e0090008000400003
:10627000e092200000804000100078000000e00064
:106280000e003200be0190003e00900080004000f1
:10629000e092200000804000900078002e009000e6
:1062a000008040000001d10083804100a0912000c7
:1062b0000080400002087800060037003e00900091
:1062c00080004000a091200000804000ae009000bf
:1062d000010878003e00900080004000e09220001d
:1062e00000804000ae00900001087800c200370036
:1062f0003e00900080004000a091200000804000ff
:10630000ae009000010878003e0090008000400040
:10631000e0922000808040000000eb0080087800c0
:10632000b50037003e00900000004000fa00400039
:10633000208020000080400010007800e10f500015
:1063400003003a00104a8000000f78000d0037006b
:106350003e00900000004000fa0040002080200035
:106360000080400010007800e20f500003003a0067
:10637000214c8000010f7800020037000000eb0084
:10638000000f7800100020009e0f10008e003600d5
:106390000000eb0010079800870037003e009000d7
:1063a00000004000fa0040002080200000804000f3
:1063b00010007800e10f50003a003a001e009000f3
:1063c0008000400040942000008040009000780051
:1063d0002e009000808f500074003e001e00900040
:1063e0000000e80080004000409420000080400051
:1063f000900078002e009000808f50006b003600d7
:106400001e00900080004000409620000080400068
:10641000100478001e0090000000e800800040009a
:106420004094200000804000100178001e00900081
:106430008000400040942000008040001000780060
:10644000800151001e0090000000e8008000400024
:106450004096200000804000100078000001780085
:106460001e00900080004000409620000080400008
:1064700010007800000151001e00900080004000d4
:1064800040942000008040001000780080007800d8
:106490002e009000ebf10700000044002007980058
:1064a000490037003e00900000004000fa00400024
:1064b000208020000080400010007800e20f500093
:1064c0003a003a001e0090008000400060982000d2
:1064d00000804000900078002e009000808f5000d7
:1064e00032003e001e0090000000e80080004000e6
:1064f0006098200000804000900078002e009000fe
:10650000808f5000290036001e009000800040005f
:10651000609a200000804000100478001e00900067
:106520000000e800800040006098200000804000eb
:10653000100178001e00900080004000609820004c
:106540000080400010007800800151001e00900083
:106550000000e80080004000609a200000804000b9
:1065600010007800000178001e00900080004000bc
:10657000609a200000804000100078000001510067
:106580001e009000800040006098200000804000c5
:1065900010007800800078002e009000a9f107001c
:1065a0000000440020079800070037001e009000fc
:1065b0000000e800100798009e00e9001e0090000f
:1065c000808f500075ff3e003e009000800040002c
:1065d000a091200000804000ae00900001087800eb
:1065e0003e00900080004000e0922000808040004b
:1065f0000000eb00800878003e0090000000e800fa
:10660000300798003e009000e90f500080fe3600f1
:106610000000eb00b048880010002000a04f880068
:106620004f0478000080fa00000006000800fa001d
:10663000881f7800a04f80000000e0002001320099
:10664000107f8000e30f50001b013a0020408000c3
:10665000e10f500005003a00e1252d00805a22008c
:1066600019f10700b04f88000f003700204080006c
:10667000e20f500005003a0061262d00805a2200ea
:1066800011f10700b04f880007003700204080005c
:10669000e30f500004003a00e1262d00805a22004a
:1066a00009f10700b04f880035f40700b14f8000b2
:1066b000c05b8000d4ee0700b04f8800c05b800054
:1066c0000000e800c05b8800b04f800051272d001b
:1066d000fdf00700b04f88003ef40700000f78007f
:1066e0005148800003802000823e20001e00780078
:1066f00054f10700000f7800b14f80001e007800b1
:1067000069ef0700b04f8800b04f800051272d007f
:10671000edf00700b04f880032f40700000f78005a
:106720006148800003802000823e20001e00780027
:1067300044f10700000f7800b14f80001e00780080
:1067400059ef0700b04f8800b04f800051272d004f
:10675000ddf00700b04f880026f40700000f780036
:106760007148800003802000823e20001e007800d7
:1067700034f10700000f7800b14f80001e00780050
:1067800049ef0700b04f8800b04f800051272d001f
:10679000cdf00700b04f880020408000e20f50008d
:1067a0003000320017f40700000f780081488000a5
:1067b00003802000122720001e00780021f107002e
:1067c000000f7800b14f80001e007800a7ef07008f
:1067d000b04f8800b04f800051272d00baf007005d
:1067e000b04f88000bf40700000f7800914880003c
:1067f00003802000122720001e00780011f10700fe
:10680000000f7800b14f80001e00780097ef07005e
:10681000b04f8800b04f800051272d00aaf007002c
:10682000b04f8800fff30700000f7800a1488000f8
:1068300003802000122720001e00780001f10700cd
:10684000000f7800b14f80001e00780087ef07002e
:10685000b04f8800b04f800051272d009af00700fc
:10686000b04f8800b24f800040788000517880009f
:106870008200780064ee0700b04f8800204080005e
:10688000e10f50000a003600b04f800051272d0064
:106890008df00700b04f8800b24f80006078800014
:1068a000717880008200780057ee0700b04f8800b2
:1068b00020408000e30f50000a003a00b04f8000f3
:1068c00051272d0080f00700b04f8800b24f8000a4
:1068d0008078800091788000820078004aee07007e
:1068e000b04f880020408000e10f500003003a00c4
:1068f00050002000000f7800050037002040800085
:10690000e10f50000200360080002000000f7800e8
:106910000000eb001007980012003700b14f800014
:10692000c002200080087800b04f80000080e8009e
:10693000b04f8800b24f80001e00900080004000e1
:10694000a0912000008040001000780082007800b4
:106950002dee0700b04f88001e0090000000e800f8
:10696000100798001e0090009e0f5000ebff3900aa
:1069700020408000e30f500011003a00b14f80002a
:10698000c002200080087800b04f80000080e8003e
:10699000b04f8800b14f8000604980002003b000f4
:1069a00042062000811f7800110009000280d800f3
:1069b00001017800cf0078002cef0700b04f88006d
:1069c000b14f8000a002200080087800b04f800006
:1069d0000080e800b04f88000040eb007eebb7007d
:1069e000805a2200c04f8800c04f8000900078007d
:1069f00040022000808f50000d003a00c04f800000
:106a00000080e800c04f880009003700c04f8000b8
:106a100010007800804078007ecbbf0000c0680086
:106a20007eebb700c04f80000080e800c04f8800b8
:106a3000c04f8000100078000000e0000500320028
:106a4000c04f800090007800a0022000808f50008e
:106a5000eeff3a00b14f80007ecbbf0073ef07001e
:106a6000b04f8800b14f8000d0002000800878002f
:106a7000b04f80000080e800b04f8800b14f800028
:106a8000a000200080087800b04f80000080e8005f
:106a9000b04f8800b14f80000000eb008008780004
:106aa000b04f800080007800805a220000805000a3
:106ab0000080d100470d07000000eb00a04f8800c8
:106ac000005c80000000e00090073200107f800032
:106ad000e20f50008d073a00805a2200b04f880024
:106ae000005c80006101b800e0ff2f00f1ff2f0083
:106af0000201400083814800220798003307980074
:106b0000f0022000010020002e019000be01900044
:106b1000800f5100818f59005c073e002e009000cd
:106b2000be009000006001002f0037003b073700d7
:106b30007f033700930337009a003700c700370000
:106b4000df003700510737001b0137004f073700c0
:106b5000530137004d0737006f04370074043700c6
:106b6000e204370010053700ba013700d2013700c0
:106b7000eb013700050237009c033700c9033700db
:106b8000f90337002e043700d9053700e105370037
:106b90003e0737003d0737003c0737003b0737000b
:106ba0003a073700140237002b023700640237001f
:106bb0007b023700b6023700cd02370008033700ea
:106bc0001f033700e1053700070637004906370085
:106bd000b60637002d0737000607370007003700d5
:106be0000907370024073700b04f800081272d00a8
:106bf000b5ef0700b04f8800280737000000eb0012
:106c0000c0488800b0022000201188000000260043
:106c1000813d2000ce100700b00220002011880026
:106c20000000270021062000c9100700b002200044
:106c3000201188000000270021062000c410070052
:106c4000b00220002011880000802400212e2000a6
:106c5000bf100700805a2200b04f8800e1a020003a
:106c6000b04f800098ef0700b04f8800b04f800011
:106c7000b1282d0094ef0700b04f8800b04f80007e
:106c800080007800805a2200008050000080d100ef
:106c9000000f78000000eb00a05b88001e00780069
:106ca000cc0c070000002600813d2000a810070042
:106cb000805a2200b04f8800b04f8000e1282d009c
:106cc00081ef0700b04f88009e00780080a0200070
:106cd00080804000b04f80007bef0700b04f8800fd
:106ce000b14f80000000eb0080087800b04f8000ba
:106cf0000080e800b04f88000000eb00a05b880037
:106d000040002000b30c070000002300c11e20003b
:106d10008f100700805a2200b04f8800b04f8000cb
:106d200041292d0068ef0700b04f88000000eb00fc
:106d300010079800030037001e0090000000e800d4
:106d4000100798001e009000640040008000400082
:106d5000805a220000804000100078000004e0000b
:106d6000030032001e009000f30f5000f2ff3600c7
:106d70001e0090000000400080007800b04f8000ae
:106d800000804000b04f880010002000c0488800fc
:106d90000000eb00b05b88000000eb00a05b880007
:106da000be063700b04f800091292d0046ef070046
:106db000b04f8800b14f8000e04f80000000e80035
:106dc00011ed0700b04f8800b14f8000a0032000f4
:106dd00080087800b04f80000080e800b04f880045
:106de000b0488000e10f50000e003a00b24f800022
:106df000e04f800080004000a0182d00008040007f
:106e00001000780080004000003122000080400027
:106e10001000780082007800fbec0700b04f88007b
:106e20009e063700b24f8000e04f80008000400097
:106e3000a0182d0000804000100078008000400065
:106e4000002d2200008040001000780082007800b1
:106e5000edec0700b04f880090063700b04f80007f
:106e6000612a2d0018ef0700b04f8800b14f800055
:106e7000e04f80000000e800e3ec0700b04f88001e
:106e8000b14f8000a003200080087800b04f800040
:106e90000080e800b04f8800b24f8000e04f8000d3
:106ea00080004000a0912000008040001000780089
:106eb00082007800d4ec0700b04f880077063700d6
:106ec000b04f8000312b2d00ffee0700b04f88003f
:106ed000b14f8000e04f80000000e800caec0700de
:106ee000b04f8800b14f8000a003200080087800d8
:106ef000b04f80000080e800b04f8800b0488000ac
:106f0000e10f50000b003a00e04f800068004000a5
:106f100080004000a0182d00008040001000780084
:106f2000800040000031220000804000100f7800f7
:106f30000a003700e04f80006800400080004000f9
:106f4000a0182d0000804000100078008000400054
:106f5000002d220000804000100f7800e04f8000dc
:106f6000e20f500006003a00833e200092372000d6
:106f70008000eb001e00780032ef0700000f780061
:106f8000e04f8000e30f500006003a00a30020000d
:106f9000a20220008000eb001e00780029ef07000d
:106fa000000f7800b14f80001e00780096ec0700bb
:106fb000b04f880039063700b04f8000212c2d00db
:106fc000c1ee0700b04f8800b14f8000e04f800055
:106fd0008dec0700b04f8800e04f80000000e90012
:106fe000e04f8800b04f8000012f2d00b6ee070063
:106ff000b04f8800b24f8000e04f8000800040001a
:10700000208320000080400010007800820078007b
:10701000c6ec0700b04f8800b14f8000c0022000ce
:1070200080087800b04f80000080e800b04f8800f2
:10703000b24f8000e04f800000004000f4004000ac
:10704000208320000080400010007800820078003b
:10705000b6ec0700b04f8800b14f8000c00220009e
:1070600080087800b04f80000080e800b04f8800b2
:10707000b24f8000e04f80000000400081022000fd
:1070800080804000208320000080400010007800b5
:10709000820078005cec0700b04f8800ff053700e5
:1070a000b04f8000412f2d0087ee0700b04f8800c1
:1070b000b14f8000e04f800053ec0700b04f8800d4
:1070c000e04f80000000e900e04f8800b04f8000f2
:1070d000012f2d007cee0700b04f8800b24f8000da
:1070e000e04f800080004000e086200000804000eb
:1070f00010007800820078008cec0700b04f880008
:10710000b14f8000c002200080087800b04f80009e
:107110000080e800b04f8800b24f8000e04f800050
:1071200000004000fa004000e0862000008040009f
:1071300010007800820078007cec0700b04f8800d7
:10714000b14f8000c002200080087800b04f80005e
:107150000080e800b04f8800b24f8000e04f800010
:10716000000040004103200080804000e0862000b5
:1071700000804000100078008200780022ec0700b8
:10718000b04f8800b14f8000c00220008008780016
:10719000b04f80000080e800b04f8800b24f800000
:1071a000e04f800000004000210820008080400067
:1071b000e086200000804000100078008200780007
:1071c00011ec0700b04f8800b14f8000c0022000d2
:1071d00080087800b04f80000080e800b04f880041
:1071e000b24f8000e04f8000000040008106200088
:1071f00080804000e0862000008040001000780081
:107200008200780000ec0700b04f8800b14f80008a
:10721000c002200080087800b04f80000080e800a5
:10722000b04f8800b24f8000e04f80000000400067
:10723000e104200080804000e086200000804000c3
:107240001000780082007800efeb0700b04f880054
:1072500092053700b04f8000d1332d001aee0700a1
:10726000b04f8800b14f8000e04f8000e6eb070090
:10727000b04f8800b14f8000a00320008008780044
:10728000b04f80000080e800b04f8800b24f80000f
:10729000e04f80000000e90080004000e086200010
:1072a0000080400010007800820078001fec07008a
:1072b000b04f880079053700b04f800021352d0090
:1072c00001ee0700b04f8800b14f8000e04f800012
